:100000000C942A000C9447000C9447000C94470071
:100010000C9447000C9447000C9447000C94470044
:100020000C9447000C9447000C940C150C9447005A
:100030000C9447000C9447000C9447000C94470024
:100040000C9447000C9447000C9447000C94470014
:100050000C94470011241FBECFE5D8E0DEBFCDBF12
:1000600010E0A8E6B0E001C01D92AF3BB107E1F798
:1000700010E0A0E6B0E0ECE5FCE202C005900D92D5
:10008000A836B107D9F70E9489150C942C160C9448
:100090000000EF92FF920F931F937B018C0120E0F1
:1000A00030E040E05FE40E94F50388238CF0C80153
:1000B000B70120E030E040E05FE40E94C1010E940F
:1000C00055049B01AC01205030404040504806C0D0
:1000D000C801B7010E9455049B01AC01B901CA01D6
:1000E0001F910F91FF90EF900895A0E0B0E0EBE733
:1000F000F0E00C94F515DC012B01FA019C91923093
:1001000008F439C1EB018881823008F433C194309E
:1001100069F4843009F02FC111969C91119789815F
:10012000981709F428C1A0E6B0E025C1843009F48D
:1001300021C18230A9F4923009F01DC19A01AD01AC
:1001400088E0EA010990AE01E90109929E0181501F
:10015000C1F7E201898111969C918923818308C1AD
:10016000923009F407C112962D903C901397EB0141
:100170008A819B811496AD90BD90CD90DC901797AD
:10018000EC80FD800E811F819101281B390BB90184
:1001900037FF04C066277727621B730B6032710537
:1001A0000CF061C0121613066CF537014801062EDB
:1001B00004C096948794779467940A94D2F721E0C8
:1001C00030E040E050E004C0220F331F441F551FB1
:1001D0006A95D2F721503040404050402E213F21B7
:1001E00040235123211531054105510521F021E01E
:1001F00030E040E050E079018A01E628F72808293C
:1002000019293CC0232BD1F1260E371E350146019A
:10021000062E04C096948794779467940A94D2F734
:1002200021E030E040E050E004C0220F331F441FC3
:10023000551F6A95D2F721503040404050402A2146
:100240003B214C215D21211531054105510521F04E
:1002500021E030E040E050E059016A01A628B728CB
:10026000C828D9280BC0821593052CF01C01AA249C
:10027000BB24650103C0EE24FF24870111969C91E5
:10028000D20111968C91981709F445C0992339F041
:10029000A80197012A193B094C095D0906C0A6016E
:1002A00095012E193F09400B510B57FD08C01182D3
:1002B0003382228224833583468357831DC081E0A5
:1002C00081833382228288279927DC01821B930B4A
:1002D000A40BB50B84839583A683B7830DC0220F2F
:1002E000331F441F551F24833583468357838281E0
:1002F000938101979383828324813581468157813D
:10030000DA01C9010197A109B1098F5F9F4FAF4F72
:10031000BF4328F30BC0918333822282EA0CFB1C7B
:100320000C1D1D1DE482F5820683178383E0808304
:10033000248135814681578157FF1AC0C901AA27F8
:1003400097FDA095BA2F81709070A070B0705695EF
:10035000479537952795822B932BA42BB52B848318
:100360009583A683B7838281938101969383828349
:10037000DF0101C0D201CD01CDB7DEB7E2E10C94BF
:100380001116A0E2B0E0E7ECF1E00C9401166983ED
:100390007A838B839C832D833E834F835887E9E048
:1003A000EE2EF12CEC0EFD1ECE010196B7010E943F
:1003B0007E058E010F5E1F4FCE010596B8010E948B
:1003C0007E058A8991E089278A8BC701B801AE0131
:1003D000475E5F4F0E9475000E94A904A096E6E068
:1003E0000C941D16A0E2B0E0E8EFF1E00C940116C9
:1003F00069837A838B839C832D833E834F835887C5
:10040000F9E0EF2EF12CEC0EFD1ECE010196B701A6
:100410000E947E058E010F5E1F4FCE010596B8012A
:100420000E947E05C701B801AE01475E5F4F0E9482
:1004300075000E94A904A096E6E00C941D16A0E2A7
:10044000B0E0E5E2F2E00C94F51569837A838B83E2
:100450009C832D833E834F835887CE010196BE0136
:10046000675F7F4F0E947E05CE010596BE016F5EDD
:100470007F4F0E947E059985923088F0898982306D
:10048000C8F0943019F4823051F404C0843029F457
:10049000923081F480E690E0C6C0923049F420E0CA
:1004A0009A858A89981321E02A87CE010996BBC0D4
:1004B000823049F420E09A858A89981321E02A8BBA
:1004C000CE014196B0C02D843E844F8458886D88FB
:1004D0007E888F88988CEE24FF248701AA24BB2471
:1004E000650140E050E060E070E0E0E0F0E0C10174
:1004F00081709070892BE9F0E60CF71C081D191D1E
:100500009A01AB012A0D3B1D4C1D5D1D80E090E062
:10051000A0E0B0E0E614F7040805190520F481E036
:1005200090E0A0E0B0E0BA01A901480F591F6A1F8E
:100530007B1FAA0CBB1CCC1CDD1C97FE08C081E0F5
:1005400090E0A0E0B0E0A82AB92ACA2ADB2A3196B6
:10055000E032F10549F0660C771C881C991C569412
:10056000479437942794C3CFFA85EA892B893C892D
:100570008B859C85280F391F2E5F3F4F17C0CA01FE
:1005800081709070892B61F016950795F794E79428
:1005900080E090E0A0E0B0E8E82AF92A0A2B1B2BC3
:1005A00076956795579547952F5F3F4F77FDE7CF36
:1005B0000CC0440F551F661F771F17FD4160EE0CDE
:1005C000FF1C001F111F21503040403090E05907A0
:1005D00090E0690790E4790760F32B8F3C8FDB0193
:1005E000CA018F779070A070B07080349105A1051A
:1005F000B10561F447FD0AC0E114F10401051105DC
:1006000029F0405C5F4F6F4F7F4F40781A8EFE1786
:1006100011F081E08A8F4D8F5E8F6F8F78A383E01A
:10062000898FCE0149960E94A904A096E2E10C941C
:100630001116A8E1B0E0EFE1F3E00C94FD15698339
:100640007A838B839C832D833E834F835887B9E0C5
:10065000EB2EF12CEC0EFD1ECE010196B7010E948F
:100660007E058E010F5E1F4FCE010596B8010E94D8
:100670007E052985223008F47EC03989323010F495
:10068000B8017CC08A859A8989278A87243011F02D
:10069000223031F4231709F06EC060E670E06EC0BE
:1006A000343039F41D861E861F86188A1C861B86E8
:1006B00004C0323021F484E08987B7015FC02B8504
:1006C0003C858B899C89281B390B3C872B87ED84C3
:1006D000FE840F851889AD88BE88CF88D88CEA142F
:1006E000FB040C051D0540F4EE0CFF1C001F111F40
:1006F000215030403C872B8720E030E040E050E044
:1007000080E090E0A0E0B0E460E070E0EA14FB0478
:100710000C051D0540F0282B392B4A2B5B2BEA18C2
:10072000FB080C091D09B695A79597958795EE0CC2
:10073000FF1C001F111F6F5F7F4F6F31710531F775
:10074000DA01C9018F779070A070B0708034910584
:10075000A105B10561F427FD0AC0E114F10401050A
:10076000110529F0205C3F4F4F4F5F4F20782D87B8
:100770003E874F87588BBE01675F7F4FCB010E943A
:10078000A9046896EAE00C941916A8E1B0E0EBEC35
:10079000F3E00C94011669837A838B839C832D8309
:1007A0003E834F83588789E0E82EF12CEC0EFD1E26
:1007B000CE010196B7010E947E058E010F5E1F4F8C
:1007C000CE010596B8010E947E058985823040F0F1
:1007D0008989823028F0C701B8010E94F60501C05E
:1007E0008FEF6896E6E00C941D16A8E1B0E0EBEF01
:1007F000F3E00C94011669837A838B839C832D83A9
:100800003E834F83588789E0E82EF12CEC0EFD1EC5
:10081000CE010196B7010E947E058E010F5E1F4F2B
:10082000CE010596B8010E947E058985823040F090
:100830008989823028F0C701B8010E94F60501C0FD
:100840008FEF6896E6E00C941D16A8E1B0E0EBE2AD
:10085000F4E00C94011669837A838B839C832D8347
:100860003E834F83588789E0E82EF12CEC0EFD1E65
:10087000CE010196B7010E947E058E010F5E1F4FCB
:10088000CE010596B8010E947E058985823040F030
:100890008989823028F0C701B8010E94F60501C09D
:1008A00081E06896E6E00C941D16ACE0B0E0EBE564
:1008B000F4E00C94051669837A838B839C83CE01C4
:1008C0000196BE016B5F7F4F0E947E058D81823055
:1008D00061F1823050F1843021F48E81882351F10E
:1008E0002EC02F81388537FD20C06E812F31310514
:1008F0001CF06623F9F023C08EE190E0821B930B7D
:1009000029853A854B855C8504C056954795379572
:1009100027958A95D2F76623B1F05095409530958A
:1009200021953F4F4F4F5F4F0EC020E030E040E039
:1009300050E009C02FEF3FEF4FEF5FE704C020E02A
:1009400030E040E050E8B901CA012C96E2E00C9496
:100950002116DF92EF92FF920F931F93FC01E48028
:10096000F58006811781D1808081823048F480E053
:1009700090E0A0E1B0E0E82AF92A0A2B1B2BA5C0E1
:10098000843009F49FC0823021F4EE24FF248701D3
:1009900005C0E114F1040105110519F4E0E0F0E0EF
:1009A00096C0628173819FEF623879070CF05BC05B
:1009B00022E83FEF261B370B2A3131052CF020E0CF
:1009C00030E040E050E02AC0B801A701022E04C088
:1009D00076956795579547950A94D2F781E090E010
:1009E000A0E0B0E004C0880F991FAA1FBB1F2A9582
:1009F000D2F70197A109B1098E219F21A023B1232C
:100A00000097A105B10521F081E090E0A0E0B0E001
:100A10009A01AB01282B392B4A2B5B2BDA01C90138
:100A20008F779070A070B07080349105A105B105EA
:100A300039F427FF09C0205C3F4F4F4F5F4F04C080
:100A4000215C3F4F4F4F5F4FE0E0F0E02030A0E0EF
:100A50003A07A0E04A07A0E45A0710F0E1E0F0E00E
:100A600079018A0127C06038710564F5FB01E158FE
:100A7000FF4FD801C7018F779070A070B07080349D
:100A80009105A105B10539F4E7FE0DC080E490E0C1
:100A9000A0E0B0E004C08FE390E0A0E0B0E0E80E9A
:100AA000F91E0A1F1B1F17FF05C016950795F7941F
:100AB000E794319687E016950795F794E7948A9521
:100AC000D1F705C0EE24FF248701EFEFF0E06E2F91
:100AD000679566276795902F9F77D794DD24D794E5
:100AE0008E2F8695492F462B582F5D29B701CA01B5
:100AF0001F910F91FF90EF90DF900895FC01DB01B3
:100B0000408151812281622F6F7770E0221F22275E
:100B1000221F9381892F880F822B282F30E0991F65
:100B20009927991F11969C93119721153105A9F5C5
:100B3000411551056105710511F482E037C082E865
:100B40009FEF13969C938E9312979A01AB0167E0E7
:100B5000220F331F441F551F6A95D1F783E08C93F2
:100B60000DC0220F331F441F551F12968D919C916B
:100B70001397019713969C938E931297203080E0E1
:100B8000380780E0480780E4580758F314962D93FF
:100B90003D934D935C93179708952F3F310579F45A
:100BA000411551056105710519F484E08C93089590
:100BB00064FF03C081E08C9312C01C9210C02F57B9
:100BC000304013963C932E93129783E08C9387E0EA
:100BD000440F551F661F771F8A95D1F770641496CE
:100BE0004D935D936D937C93179708951F93DC014C
:100BF000FB019C91923008F447C08081823008F458
:100C000043C0943051F411961C91843099F5818140
:100C1000682F70E0611B71093FC0843021F0923071
:100C200031F48230B9F18181882389F12DC0119688
:100C30001C9111978230F1F081811817D9F4129626
:100C40002D913C911397828193818217930794F0A1
:100C500028173907BCF014968D919D910D90BC9189
:100C6000A02D2481358146815781281739074A07ED
:100C70005B0718F4112341F00AC082179307A407F9
:100C8000B50740F4112319F061E070E005C06FEF83
:100C90007FEF02C060E070E0CB011F910895DF9309
:100CA000CF930F92CDB7DEB719828AE00E947E07FC
:100CB000882369F46EE170E080E090E00E943C15CA
:100CC0008AE00E947E07882311F481E0898389816C
:100CD0000F90CF91DF910895DF93CF930F92CDB70F
:100CE000DEB7198284E10E947E07882369F06EE1F5
:100CF00070E080E090E00E943C1584E10E947E0755
:100D0000882311F081E0898389810F90CF91DF9151
:100D10000895DF93CF9300D0CDB7DEB789836A8380
:100D20008A81882309F074C089818830A8F4ABE3F4
:100D3000B0E0EBE3F0E08081482F8981282F30E09C
:100D400081E090E0022E02C0880F991F0A94E2F71A
:100D5000809584238C93CDC089818830D8F0898197
:100D60008031C0F4A8E3B0E0E8E3F0E08081482FF0
:100D70008981882F90E09C012850304081E090E0EC
:100D8000022E02C0880F991F0A94E2F780958423EF
:100D90008C93AFC089818031D8F089818831C0F4CB
:100DA000A5E3B0E0E5E3F0E08081482F8981882F5A
:100DB00090E09C012051304081E090E0022E02C082
:100DC000880F991F0A94E2F7809584238C9391C031
:100DD0008981883108F48DC08981803208F089C00A
:100DE000A2E3B0E0E2E3F0E08081482F8981882F20
:100DF00090E09C012851304081E090E0022E02C03A
:100E0000880F991F0A94E2F7809584238C9371C010
:100E10008A81813009F06DC089818830A0F4ABE30C
:100E2000B0E0EBE3F0E08081482F8981282F30E0AB
:100E300081E090E0022E02C0880F991F0A94E2F729
:100E4000842B8C9356C089818830D0F08981803181
:100E5000B8F4A8E3B0E0E8E3F0E08081482F8981AE
:100E6000882F90E09C012850304081E090E0022ED5
:100E700002C0880F991F0A94E2F7842B8C9339C023
:100E800089818031D0F089818831B8F4A5E3B0E060
:100E9000E5E3F0E08081482F8981882F90E09C0174
:100EA0002051304081E090E0022E02C0880F991F4F
:100EB0000A94E2F7842B8C931CC089818831C8F096
:100EC00089818032B0F4A2E3B0E0E2E3F0E0808117
:100ED000482F8981882F90E09C012851304081E083
:100EE00090E0022E02C0880F991F0A94E2F7842B2B
:100EF0008C930F900F90CF91DF910895DF93CF9354
:100F000000D0CDB7DEB78A8319828A81883090F409
:100F1000E9E3F0E08081482F8A81282F30E081E0EA
:100F200090E0022E02C0880F991F0A94E2F78423F2
:100F3000898350C08A818830C0F08A818031A8F4CA
:100F4000E6E3F0E08081482F8A81882F90E09C01C1
:100F50002850304081E090E0022E02C0880F991F97
:100F60000A94E2F78423898335C08A818031C0F0F6
:100F70008A818831A8F4E3E3F0E08081482F8A81F8
:100F8000882F90E09C012051304081E090E0022EBB
:100F900002C0880F991F0A94E2F7842389831AC03C
:100FA0008A818831B8F08A818032A0F4E0E3F0E0F1
:100FB0008081482F8A81882F90E09C012851304001
:100FC00081E090E0022E02C0880F991F0A94E2F798
:100FD0008423898389810F900F90CF91DF910895A9
:100FE000DF93CF9300D0CDB7DEB789836A838A8140
:100FF000813009F070C089818830A0F4AAE3B0E0A4
:10100000EAE3F0E08081482F8981282F30E081E0F9
:1010100090E0022E02C0880F991F0A94E2F7842BF9
:101020008C93CEC089818830D0F089818031B8F42A
:10103000A7E3B0E0E7E3F0E08081482F8981882FC3
:1010400090E09C012850304081E090E0022E02C0E8
:10105000880F991F0A94E2F7842B8C93B1C0898181
:101060008031D0F089818831B8F4A4E3B0E0E4E3C2
:10107000F0E08081482F8981882F90E09C012051E9
:10108000304081E090E0022E02C0880F991F0A9440
:10109000E2F7842B8C9394C08981883108F490C046
:1010A0008981803208F08CC0A1E3B0E0E1E3F0E098
:1010B0008081482F8981882F90E09C012851304001
:1010C00081E090E0022E02C0880F991F0A94E2F797
:1010D000842B8C9375C08A81882309F071C0898123
:1010E0008830A8F4AAE3B0E0EAE3F0E08081482F7A
:1010F0008981282F30E081E090E0022E02C0880F25
:10110000991F0A94E2F7809584238C9359C08981B2
:101110008830D8F089818031C0F4A7E3B0E0E7E3FC
:10112000F0E08081482F8981882F90E09C01285031
:10113000304081E090E0022E02C0880F991F0A948F
:10114000E2F7809584238C933BC089818031D8F06D
:1011500089818831C0F4A4E3B0E0E4E3F0E0808169
:10116000482F8981882F90E09C012051304081E0F8
:1011700090E0022E02C0880F991F0A94E2F7809532
:1011800084238C931DC089818831D0F0898180327D
:10119000B8F4A1E3B0E0E1E3F0E08081482F898179
:1011A000882F90E09C012851304081E090E0022E91
:1011B00002C0880F991F0A94E2F7809584238C93CC
:1011C0000F900F90CF91DF910895DF93CF93CDB71C
:1011D000DEB7AFE5B0E0EFE5F0E0808180688C93AA
:1011E000CF91DF910895DF93CF93CDB7DEB7A9E517
:1011F000B0E0E9E5F0E0808184608C93CF91DF91ED
:101200000895DF93CF93CDB7DEB7A9E5B0E0E9E568
:10121000F0E0808181608C93CF91DF910895DF931E
:10122000CF93CDB7DEB7A9E5B0E0E9E5F0E0808186
:1012300080628C93CF91DF910895DF93CF93CDB7E8
:10124000DEB7ABE5B0E0EBE5F0E0808180628C9347
:10125000CF91DF910895DF93CF9300D00F92CDB758
:10126000DEB789838981282F30E03B832A838A81F6
:101270009B81009731F02A813B812130310549F073
:101280000FC0A4E5B0E0E4E5F0E080818F7B8C93B3
:1012900007C0A4E5B0E0E4E5F0E0808180648C93D1
:1012A0000F900F900F90CF91DF910895DF93CF9320
:1012B000CDB7DEB7AFE5B0E0EFE5F0E080818F7746
:1012C0008C93CF91DF910895DF93CF93CDB7DEB7A5
:1012D000A9E5B0E0E9E5F0E080818E7F8C93CF91C5
:1012E000DF910895DF93CF93CDB7DEB785E160E05E
:1012F0000E94F00786E160E00E94F00787E160E06D
:101300000E94F00782E161E00E94F00783E161E062
:101310000E94F00784E161E00E94F00785E161E04E
:101320000E94890686E161E00E94890687E161E00A
:101330000E948906CF91DF910895DF93CF93CDB7B7
:10134000DEB727970FB6F894DEBF0FBECDBF9D83E3
:101350008C831B821A8219821A8228C08A818B5E32
:1013600060E00E948906198216C089818E5E0E9403
:101370007E07882369F48981282F30E0C901880F0E
:10138000991F820F931F982F8A81890F8F5F8B83FC
:1013900089818F5F89838981833038F38A818B5E6D
:1013A00061E00E9489068A818F5F8A838A81833007
:1013B000A8F28B81882389F08B81813019F08B8191
:1013C000823041F480916800882321F481E0809389
:1013D000680005C01092680002C0109268008091F9
:1013E0006800282F30E03F832E838E819F818130DB
:1013F000910531F02E813F812230310529F023C043
:1014000082E0809368001FC08B81813019F08B814E
:101410008823A1F48B81813029F4EC81FD8181E066
:1014200080830FC08B81823029F4EC81FD8182E0C2
:10143000808307C0EC81FD81108203C0EC81FD81B7
:101440001082109268008091680027960FB6F89479
:10145000DEBF0FBECDBFCF91DF910895DF93CF9355
:10146000CDB7DEB768970FB6F894DEBF0FBECDBF1D
:1014700083E061E00E94F00782E061E00E94F007F3
:1014800081E061E00E94F00784E061E00E94F007E3
:1014900085E061E00E94F00786E061E00E94F007CD
:1014A00087E061E00E94F00780E090E0A8ECB2E401
:1014B0008D8B9E8BAF8BB88F6D897E898F89988D30
:1014C0002BEA3AEA4AEA50E40E941F02DC01CB010F
:1014D000898B9A8BAB8BBC8B69897A898B899C8928
:1014E00020E030E040E85FE30E94250488231CF4FC
:1014F00081E0888B91C069897A898B899C8920E0F9
:1015000030E04FE753E40E94C50318160CF07BC08F
:101510006D897E898F89988D20E030E04AE754E418
:101520000E941903DC01CB018C879D87AE87BF87A2
:101530006C857D858E859F8520E030E04AE755E407
:101540000E941F02DC01CB0188879987AA87BB878D
:10155000688579858A859B8520E030E040E85FE3F7
:101560000E94250488232CF481E090E09F838E83E1
:101570003FC0688579858A859B8520E03FEF4FE7EE
:1015800057E40E94C50318164CF56C857D858E8541
:101590009F8520E030E040E251E40E941F02DC0120
:1015A000CB01BC01CD010E944900DC01CB019F832E
:1015B0008E830FC080E991E09D838C838C819D8117
:1015C0000197F1F79D838C838E819F8101979F8383
:1015D0008E838E819F81009769F724C06885798505
:1015E0008A859B850E944900DC01CB019F838E8305
:1015F0008E819F819B838A838A819B810197F1F7EA
:101600009B838A830FC069897A898B899C890E9410
:101610004900DC01CB01888B8889898389818A957F
:10162000F1F7898383E30E94300B82E30E94300B41
:1016300088E20E94300B8CE00E94300B81E00E9417
:10164000300B86E00E94300B82E00E94300B6896DF
:101650000FB6F894DEBF0FBECDBFCF91DF910895D6
:101660000F931F93DF93CF93CDB7DEB7C954D0400C
:101670000FB6F894DEBF0FBECDBFFE01E75BFF4F94
:10168000808382E060E00E94890681E060E00E9441
:10169000890683E060E00E948906ABE3B0E0FE01CA
:1016A000E75BFF4F8081982F907FEBE3F0E0808134
:1016B0008F70892B8C9383E061E00E948906FE0184
:1016C000EB5BFF4F80E090E0A8ECB2E48083918375
:1016D000A283B3838E010F5B1F4FFE01EB5BFF4FB5
:1016E00060817181828193812BEA3AEA4AEA50E46F
:1016F0000E941F02DC01CB01F80180839183A28349
:10170000B383FE01EF5BFF4F608171818281938122
:1017100020E030E040E85FE30E942504882334F4B1
:1017200081E0FE01E05CFF4F80839DC0FE01EF5B26
:10173000FF4F608171818281938120E030E04FE72B
:1017400053E40E94C50318160CF07EC0FE01EB5B4B
:10175000FF4F608171818281938120E030E04AE710
:1017600054E40E941903DC01CB018CAF9DAFAEAFF6
:10177000BFAF6CAD7DAD8EAD9FAD20E030E04AE7F0
:1017800055E40E941F02DC01CB0188AF99AFAAAFDC
:10179000BBAF68AD79AD8AAD9BAD20E030E040E8ED
:1017A0005FE30E94250488232CF481E090E09FAB46
:1017B0008EAB3FC068AD79AD8AAD9BAD20E03FEF09
:1017C0004FE757E40E94C50318164CF56CAD7DAD8C
:1017D0008EAD9FAD20E030E040E251E40E941F0258
:1017E000DC01CB01BC01CD010E944900DC01CB0131
:1017F0009FAB8EAB0FC080E991E09DAB8CAB8CA909
:101800009DA90197F1F79DAB8CAB8EA99FA901977C
:101810009FAB8EAB8EA99FA9009769F72DC068ADCD
:1018200079AD8AAD9BAD0E944900DC01CB019FAB35
:101830008EAB8EA99FA99BAB8AAB8AA99BA9019766
:10184000F1F79BAB8AAB18C0FE01EF5BFF4F6081E5
:101850007181828193810E944900DC01CB01FE01EC
:10186000E05CFF4F8083FE01E05CFF4F808189AB2D
:1018700089A98A95F1F789AB83E060E00E94890627
:10188000ABE3B0E0FE01E75BFF4F8081882F90E083
:1018900082959295907F9827807F9827982FEBE3E9
:1018A000F0E080818F70892B8C9383E061E00E944F
:1018B000890680E090E0A8ECB2E48DA79EA7AFA7D0
:1018C000B8AB6DA57EA58FA598A92BEA3AEA4AEA9E
:1018D00050E40E941F02DC01CB0189A79AA7ABA7A5
:1018E000BCA769A57AA58BA59CA520E030E040E8BF
:1018F0005FE30E94250488231CF481E088A791C03F
:1019000069A57AA58BA59CA520E030E04FE753E4BC
:101910000E94C50318160CF07BC06DA57EA58FA58F
:1019200098A920E030E04AE754E40E941903DC0162
:10193000CB018CA39DA3AEA3BFA36CA17DA18EA15F
:101940009FA120E030E04AE755E40E941F02DC013D
:10195000CB0188A399A3AAA3BBA368A179A18AA15B
:101960009BA120E030E040E85FE30E94250488234B
:101970002CF481E090E09F8F8E8F3FC068A179A109
:101980008AA19BA120E03FEF4FE757E40E94C503E7
:1019900018164CF56CA17DA18EA19FA120E030E02E
:1019A00040E251E40E941F02DC01CB01BC01CD01E9
:1019B0000E944900DC01CB019F8F8E8F0FC080E910
:1019C00091E09D8F8C8F8C8D9D8D0197F1F79D8F70
:1019D0008C8F8E8D9F8D01979F8F8E8F8E8D9F8D7B
:1019E000009769F724C068A179A18AA19BA10E94F0
:1019F0004900DC01CB019F8F8E8F8E8D9F8D9B8F39
:101A00008A8F8A8D9B8D0197F1F79B8F8A8F0FC0EC
:101A100069A57AA58BA59CA50E944900DC01CB0194
:101A200088A788A5898F898D8A95F1F7898F83E0AA
:101A300060E00E94890680E090E0AAEFB3E48D8B1D
:101A40009E8BAF8BB88F6D897E898F89988D2BEA9D
:101A50003AEA4AEA50E40E941F02DC01CB01898B7A
:101A60009A8BAB8BBC8B69897A898B899C8920E0A6
:101A700030E040E85FE30E94250488231CF481E005
:101A8000888B91C069897A898B899C8920E030E0B4
:101A90004FE753E40E94C50318160CF07BC06D8914
:101AA0007E898F89988D20E030E04AE754E40E94D7
:101AB0001903DC01CB018C879D87AE87BF876C85BE
:101AC0007D858E859F8520E030E04AE755E40E94C1
:101AD0001F02DC01CB0188879987AA87BB876885AD
:101AE00079858A859B8520E030E040E85FE30E94AD
:101AF000250488232CF481E090E09F838E833FC0EF
:101B0000688579858A859B8520E03FEF4FE757E41C
:101B10000E94C50318164CF56C857D858E859F85C2
:101B200020E030E040E251E40E941F02DC01CB01E2
:101B3000BC01CD010E944900DC01CB019F838E8353
:101B40000FC080E991E09D838C838C819D810197FA
:101B5000F1F79D838C838E819F8101979F838E8374
:101B60008E819F81009769F724C0688579858A8571
:101B70009B850E944900DC01CB019F838E838E816F
:101B80009F819B838A838A819B810197F1F79B8345
:101B90008A830FC069897A898B899C890E94490050
:101BA000DC01CB01888B8889898389818A95F1F74B
:101BB0008983C75BDF4F0FB6F894DEBF0FBECDBF82
:101BC000CF91DF911F910F9108950F931F93DF9392
:101BD000CF93CDB7DEB7C954D0400FB6F894DEBF6F
:101BE0000FBECDBFFE01E75BFF4F808382E060E068
:101BF0000E94890681E061E00E94890683E060E03E
:101C00000E948906ABE3B0E0FE01E75BFF4F8081F5
:101C1000982F907FEBE3F0E080818F70892B8C937D
:101C200083E061E00E948906FE01EB5BFF4F80E0EC
:101C300090E0A8ECB2E480839183A283B3838E0109
:101C40000F5B1F4FFE01EB5BFF4F60817181828153
:101C500093812BEA3AEA4AEA50E40E941F02DC012F
:101C6000CB01F80180839183A283B383FE01EF5BF4
:101C7000FF4F608171818281938120E030E040E8F4
:101C80005FE30E942504882334F481E0FE01E05CD8
:101C9000FF4F80839DC0FE01EF5BFF4F608171812C
:101CA0008281938120E030E04FE753E40E94C50336
:101CB00018160CF07EC0FE01EB5BFF4F6081718156
:101CC0008281938120E030E04AE754E40E941903C6
:101CD000DC01CB018CAF9DAFAEAFBFAF6CAD7DADC6
:101CE0008EAD9FAD20E030E04AE755E40E941F0230
:101CF000DC01CB0188AF99AFAAAFBBAF68AD79ADBE
:101D00008AAD9BAD20E030E040E85FE30E9425040F
:101D100088232CF481E090E09FAB8EAB3FC068AD90
:101D200079AD8AAD9BAD20E03FEF4FE757E40E94CD
:101D3000C50318164CF56CAD7DAD8EAD9FAD20E0A2
:101D400030E040E251E40E941F02DC01CB01BC0103
:101D5000CD010E944900DC01CB019FAB8EAB0FC0CF
:101D600080E991E09DAB8CAB8CA99DA90197F1F71F
:101D70009DAB8CAB8EA99FA901979FAB8EAB8EA913
:101D80009FA9009769F72DC068AD79AD8AAD9BAD6D
:101D90000E944900DC01CB019FAB8EAB8EA99FA9AD
:101DA0009BAB8AAB8AA99BA90197F1F79BAB8AAB46
:101DB00018C0FE01EF5BFF4F6081718182819381CA
:101DC0000E944900DC01CB01FE01E05CFF4F8083F3
:101DD000FE01E05CFF4F808189AB89A98A95F1F70C
:101DE00089AB83E060E00E948906ABE3B0E0FE01CE
:101DF000E75BFF4F8081882F90E082959295907FDE
:101E00009827807F9827982FEBE3F0E080818F70F0
:101E1000892B8C9383E061E00E94890680E090E04A
:101E2000A8ECB2E48DA79EA7AFA7B8AB6DA57EA521
:101E30008FA598A92BEA3AEA4AEA50E40E941F02C9
:101E4000DC01CB0189A79AA7ABA7BCA769A57AA596
:101E50008BA59CA520E030E040E85FE30E942504CC
:101E600088231CF481E088A791C069A57AA58BA579
:101E70009CA520E030E04FE753E40E94C50318160C
:101E80000CF07BC06DA57EA58FA598A920E030E061
:101E90004AE754E40E941903DC01CB018CA39DA303
:101EA000AEA3BFA36CA17DA18EA19FA120E030E0D5
:101EB0004AE755E40E941F02DC01CB0188A399A3E5
:101EC000AAA3BBA368A179A18AA19BA120E030E0CD
:101ED00040E85FE30E94250488232CF481E090E031
:101EE0009F8F8E8F3FC068A179A18AA19BA120E01E
:101EF0003FEF4FE757E40E94C50318164CF56CA15D
:101F00007DA18EA19FA120E030E040E251E40E943B
:101F10001F02DC01CB01BC01CD010E944900DC01A4
:101F2000CB019F8F8E8F0FC080E991E09D8F8C8FAA
:101F30008C8D9D8D0197F1F79D8F8C8F8E8D9F8D50
:101F400001979F8F8E8F8E8D9F8D009769F724C08C
:101F500068A179A18AA19BA10E944900DC01CB0163
:101F60009F8F8E8F8E8D9F8D9B8F8A8F8A8D9B8D5D
:101F70000197F1F79B8F8A8F0FC069A57AA58BA572
:101F80009CA50E944900DC01CB0188A788A5898F08
:101F9000898D8A95F1F7898F83E060E00E94890638
:101FA00080E090E0AAEFB3E48D8B9E8BAF8BB88F6F
:101FB0006D897E898F89988D2BEA3AEA4AEA50E446
:101FC0000E941F02DC01CB01898B9A8BAB8BBC8BEF
:101FD00069897A898B899C8920E030E040E85FE359
:101FE0000E94250488231CF481E0888B91C06989B4
:101FF0007A898B899C8920E030E04FE753E40E9486
:10200000C50318160CF07BC06D897E898F89988D69
:1020100020E030E04AE754E40E941903DC01CB01E0
:102020008C879D87AE87BF876C857D858E859F85D4
:1020300020E030E04AE755E40E941F02DC01CB01BA
:1020400088879987AA87BB87688579858A859B85D4
:1020500020E030E040E85FE30E94250488232CF470
:1020600081E090E09F838E833FC0688579858A8573
:102070009B8520E03FEF4FE757E40E94C503181609
:102080004CF56C857D858E859F8520E030E040E2B3
:1020900051E40E941F02DC01CB01BC01CD010E9472
:1020A0004900DC01CB019F838E830FC080E991E062
:1020B0009D838C838C819D810197F1F79D838C8317
:1020C0008E819F8101979F838E838E819F81009750
:1020D00069F724C0688579858A859B850E944900B7
:1020E000DC01CB019F838E838E819F819B838A83BA
:1020F0008A819B810197F1F79B838A830FC069894D
:102100007A898B899C890E944900DC01CB01888BEC
:102110008889898389818A95F1F78983C75BDF4F35
:102120000FB6F894DEBF0FBECDBFCF91DF911F91E8
:102130000F910895DF93CF9300D00F92CDB7DEB704
:102140009B838A8319820EC08981282F30E08A817F
:102150009B81FC01E20FF31F80810E94E50D8981C4
:102160008F5F89838981282F30E08A819B81FC01E0
:10217000E20FF31F8081882339F70F900F900F90A3
:10218000CF91DF910895EF92FF920F931F93DF930A
:10219000CF93CDB7DEB728970FB6F894DEBF0FBE4A
:1021A000CDBF6D837E838F83988781E090E0A0E030
:1021B000B0E089839A83AB83BC8336C089819A81DE
:1021C000AB81BC812AE030E040E050E0BC01CD01B1
:1021D0000E94B4157B018C018D819E81AF81B885F1
:1021E0002AE030E040E050E0BC01CD010E94D31570
:1021F000DC01CB018E0D9F1DA01FB11F89839A8327
:10220000AB83BC838D819E81AF81B8852AE030E0AD
:1022100040E050E0BC01CD010E94D315DA01C901B4
:102220008D839E83AF83B8878D819E81AF81B88572
:102230000097A105B10511F623C089819A81AB8170
:10224000BC812AE030E040E050E0BC01CD010E94BA
:10225000D315DC01CB01805D0E94E50D89819A8157
:10226000AB81BC812AE030E040E050E0BC01CD0110
:102270000E94D315DA01C90189839A83AB83BC8399
:1022800089819A81AB81BC8182309105A105B1051C
:10229000A0F628960FB6F894DEBF0FBECDBFCF9143
:1022A000DF911F910F91FF90EF900895DF93CF93EF
:1022B00000D000D0CDB7DEB78B836C8380E88983F4
:1022C00080EC8A838B81282F30E0CE010196FC01BF
:1022D000E20FF31F90818C81890F0E94300B0F90C9
:1022E0000F900F900F90CF91DF910895DF93CF93D0
:1022F000CDB7DEB781E00E94300BCF91DF9108951A
:10230000DF93CF93CDB7DEB7A8E3B0E0E8E3F0E02A
:10231000908180E189278C93CF91DF910895DF939D
:10232000CF93CDB7DEB78CE061E00E94F0078CE080
:1023300060E00E948906CF91DF910895DF93CF93EB
:10234000CDB7DEB7A8E3B0E0E8E3F0E0908180E24B
:1023500089278C93CF91DF910895DF93CF93CDB7E9
:10236000DEB78DE061E00E94F0078DE060E00E9442
:102370008906CF91DF910895DF93CF93CDB7DEB774
:10238000A8E3B0E0E8E3F0E0908180E489278C9353
:10239000CF91DF910895DF93CF93CDB7DEB78EE075
:1023A00061E00E94F0078EE060E00E948906CF9114
:1023B000DF910895DF93CF93CDB7DEB7A8E3B0E008
:1023C000E8E3F0E0908180E889278C93CF91DF915A
:1023D0000895DF93CF93CDB7DEB78FE061E00E9421
:1023E000F0078FE060E00E948906CF91DF910895A9
:1023F000DF93CF93CDB7DEB78CE061E00E94890612
:10240000CF91DF910895DF93CF93CDB7DEB78DE005
:1024100061E00E948906CF91DF910895DF93CF9309
:10242000CDB7DEB78EE061E00E948906CF91DF91E3
:102430000895DF93CF93CDB7DEB78FE061E00E94C0
:102440008906CF91DF910895DF93CF9300D0CDB768
:10245000DEB71A82198214C089819A81880F991F68
:102460009C01220F331F220F331F820F931FFC0189
:10247000EC58FF4F108289819A8101969A83898353
:1024800089819A818630910538F38BE693E10E9429
:10249000551482E80E9483140E94FE140E94E508ED
:1024A0000F900F90CF91DF910895DF93CF93CDB729
:1024B000DEB728970FB6F894DEBF0FBECDBF9A8364
:1024C00089837C836B835E834D8338872F838F81E1
:1024D0009885880F991F9C01220F331F220F331FED
:1024E000820F931FFC01E458FF4F89819A819183E9
:1024F00080838F819885880F991F9C01220F331F3D
:10250000220F331F820F931FFC01EB58FF4F8B816B
:102510009C81918380838F819885880F991F9C016E
:10252000220F331F220F331F820F931FFC01E95824
:10253000FF4F8D819E81918380838F819885880F45
:10254000991F9C01220F331F220F331F820F931FED
:10255000FC01EC58FF4F81E080838F819885880FC4
:10256000991F9C01220F331F220F331F820F931FCD
:10257000FC01E558FF4F108228960FB6F894DEBF95
:102580000FBECDBFCF91DF910895DF93CF930F9210
:10259000CDB7DEB7198219824AC08981882F90E0B1
:1025A000880F991F9C01220F331F220F331F820FA8
:1025B000931FFC01E558FF4F80818823A9F589818D
:1025C000882F90E0880F991F9C01220F331F220F44
:1025D000331F820F931FFC01E558FF4F81E080837A
:1025E0008981882F90E0880F991F9C01220F331F4B
:1025F000220F331F820F931FFC01E458FF4F0190FD
:10260000F081E02D09958981882F90E0880F991F2E
:102610009C01220F331F220F331F820F931FFC01D7
:10262000E558FF4F82E0808389818F5F89838981AC
:10263000863008F4B2CFAFCFDF93CF9300D00F92A4
:10264000CDB7DEB79B838A8319823CC08981882FEE
:1026500090E0880F991F9C01220F331F220F331F18
:10266000820F931FFC01E758FF4F208131818A813F
:102670009B812817390719F58981882F90E0880FE9
:10268000991F9C01220F331F220F331F820F931FAC
:10269000FC01E458FF4F118210828981882F90E05D
:1026A000880F991F9C01220F331F220F331F820FA7
:1026B000931FFC01E558FF4F83E0808306C08981AA
:1026C0008F5F89838981863008F20F900F900F9079
:1026D000CF91DF910895EF92FF920F931F93DF93B5
:1026E000CF93CDB7DEB78091690090916A00A09139
:1026F0006B00B0916C000196A11DB11D8093690023
:1027000090936A00A0936B00B0936C001092BD0090
:102710001092BC0098C08091BC009091BD00880FC1
:10272000991F9C01220F331F220F331F820F931F0B
:10273000FC01E558FF4F8081833009F47BC0E090B5
:102740006900F0906A0000916B0010916C0080911C
:10275000BC009091BD00880F991F9C01220F331F70
:10276000220F331F820F931FFC01EB58FF4F808114
:1027700091819C0140E050E0C801B7010E94D3154F
:10278000DC01CB010097A105B10509F041C08091A2
:10279000BC009091BD00880F991F9C01220F331F30
:1027A000220F331F820F931FFC01E558FF4F108249
:1027B0008091BC009091BD00880F991F9C01220F51
:1027C000331F220F331F820F931FFC01E958FF4F65
:1027D0002081318180916E0090916F008217930764
:1027E00048F58091BC009091BD00880F991F9C0115
:1027F000220F331F220F331F820F931FFC01E95852
:10280000FF4F8081918190936F0080936E0012C082
:102810008091BC009091BD00880F991F9C01220FF0
:10282000331F220F331F820F931FFC01E558FF4F08
:1028300082E080838091BC009091BD0001969093CE
:10284000BD008093BC008091BC009091BD0086309B
:10285000910508F460CFCF91DF911F910F91FF9008
:10286000EF900895DF93CF93CDB7DEB7A5E5B0E045
:10287000E5E5F0E0808180688C93A5E5B0E0E5E5D2
:10288000F0E080818F7E8C93A5E5B0E0E5E5F0E097
:1028900080818F7D8C93A5E5B0E0E5E5F0E0808157
:1028A0008F7B8C93CF91DF910895DF93CF9300D0EE
:1028B000CDB7DEB79A838983A3E5B0E0E3E5F0E026
:1028C000808181608C93A3E5B0E0E3E5F0E0808156
:1028D00082608C9389819A819093720080937100B9
:1028E0000F900F90CF91DF910895DF93CF930F92C8
:1028F000CDB7DEB78983E2E5F0E0898180830F9070
:10290000CF91DF910895DF93CF930F92CDB7DEB7CC
:102910008983ECE5F0E0898180830F90CF91DF918E
:102920000895DF93CF93CDB7DEB728970FB6F8940D
:10293000DEBF0FBECDBF6D837E838F839887ECE5AE
:10294000F0E089EF8083E2E5F0E0108219821A82DC
:102950001B821C821BC0E8E5F0E08081882F90E09C
:10296000817090700097B9F3A8E5B0E0E8E5F0E079
:10297000808182608C9389819A81AB81BC81019630
:10298000A11DB11D89839A83AB83BC838D819E81F8
:10299000AF81B8859C01AD01569547953795279530
:1029A00089819A81AB81BC8182179307A407B507FF
:1029B00090F228960FB6F894DEBF0FBECDBFCF9130
:1029C000DF910895DF93CF93CDB7DEB7A3E5B0E0F5
:1029D000E3E5F0E080818E7F8C93A3E5B0E0E3E552
:1029E000F0E080818D7F8C93A3E5B0E0E3E5F0E03B
:1029F00080818B7F8C93CF91DF910895DF93CF936C
:102A0000CDB7DEB7A9E5B0E0E9E5F0E0808182600E
:102A10008C93CF91DF9108951F920F920FB60F9272
:102A200011242F933F934F935F936F937F938F93D3
:102A30009F93AF93BF93EF93FF93DF93CF93CDB764
:102A4000DEB780E00E947514E0917100F091720091
:102A50000995CF91DF91FF91EF91BF91AF919F9138
:102A60008F917F916F915F914F913F912F910F9037
:102A70000FBE0F901F901895DF93CF93CDB7DEB7A1
:102A80002C970FB6F894DEBF0FBECDBF69877A874B
:102A90008B879C8719821A821B821C8224C01D820C
:102AA0001E821F8218860BC08D819E81AF81B885E2
:102AB0000196A11DB11D8D839E83AF83B8878D8143
:102AC0009E81AF81B885803F9105A105B10560F376
:102AD00089819A81AB81BC810196A11DB11D898339
:102AE0009A83AB83BC8329813A814B815C81898540
:102AF0009A85AB85BC85281739074A075B0778F2AA
:102B00002C960FB6F894DEBF0FBECDBFCF91DF91EC
:102B10000895DF93CF93CDB7DEB70E942E0A8BE4E2
:102B20000E94E50D64E070E080E090E00E94C31038
:102B3000FFCFDF93CF93CDB7DEB783E790E00E945E
:102B40009D09823071F480917300813019F41092E4
:102B5000BE0007C080917300823019F481E0809339
:102B6000BE00CF91DF910895629FD001739FF00165
:102B7000829FE00DF11D649FE00DF11D929FF00D0D
:102B8000839FF00D749FF00D659FF00D9927729F44
:102B9000B00DE11DF91F639FB00DE11DF91FBD01CF
:102BA000CF0111240895A1E21A2EAA1BBB1BFD011F
:102BB0000DC0AA1FBB1FEE1FFF1FA217B307E4071C
:102BC000F50720F0A21BB30BE40BF50B661F771F74
:102BD000881F991F1A9469F7609570958095909554
:102BE0009B01AC01BD01CF0108952F923F924F92FE
:102BF0005F926F927F928F929F92AF92BF92CF928D
:102C0000DF92EF92FF920F931F93CF93DF93CDB795
:102C1000DEB7CA1BDB0B0FB6F894DEBF0FBECDBF0D
:102C200009942A88398848885F846E847D848C84DE
:102C30009B84AA84B984C884DF80EE80FD800C81E7
:102C40001B81AA81B981CE0FD11D0FB6F894DEBFCA
:0C2C50000FBECDBFED010895F894FFCF3A
:082C5C00000000000000000070
:00000001FF
