:100000000C942A000C943C000C943C000C943C0092
:100010000C943C000C943C000C943C000C943C0070
:100020000C943C000C943C000C94F4060C943C00A2
:100030000C943C000C943C000C943C000C943C0050
:100040000C943C000C943C000C943C000C943C0040
:100050000C943C0011241FBECFE5D8E0DEBFCDBF1D
:1000600010E0A0E6B0E001C01D92A43BB107E1F7AB
:100070000E9471070C94D0070C940000DF93CF937B
:100080000F92CDB7DEB719828AE00E946D018823F6
:1000900069F46EE170E080E090E00E9424078AE05D
:1000A0000E946D01882311F481E0898389810F907A
:1000B000CF91DF910895DF93CF930F92CDB7DEB745
:1000C000198284E10E946D01882369F06EE170E07D
:1000D00080E090E00E94240784E10E946D01882363
:1000E00011F081E0898389810F90CF91DF9108958C
:1000F000DF93CF9300D0CDB7DEB789836A838A813F
:10010000882309F074C089818830A8F4ABE3B0E09B
:10011000EBE3F0E08081482F8981282F30E081E0F7
:1001200090E0022E02C0880F991F0A94E2F7809592
:1001300084238C93CDC089818830D8F08981803127
:10014000C0F4A8E3B0E0E8E3F0E08081482F8981C3
:10015000882F90E09C012850304081E090E0022EF2
:1001600002C0880F991F0A94E2F7809584238C932C
:10017000AFC089818031D8F089818831C0F4A5E38E
:10018000B0E0E5E3F0E08081482F8981882F90E09E
:100190009C012051304081E090E0022E02C0880F87
:1001A000991F0A94E2F7809584238C9391C08981EA
:1001B000883108F48DC08981803208F089C0A2E3BB
:1001C000B0E0E2E3F0E08081482F8981882F90E061
:1001D0009C012851304081E090E0022E02C0880F3F
:1001E000991F0A94E2F7809584238C9371C08A81C9
:1001F000813009F06DC089818830A0F4ABE3B0E0B4
:10020000EBE3F0E08081482F8981282F30E081E006
:1002100090E0022E02C0880F991F0A94E2F7842B07
:100220008C9356C089818830D0F089818031B8F4B0
:10023000A8E3B0E0E8E3F0E08081482F8981882FCF
:1002400090E09C012850304081E090E0022E02C0F6
:10025000880F991F0A94E2F7842B8C9339C0898107
:100260008031D0F089818831B8F4A5E3B0E0E5E3CE
:10027000F0E08081482F8981882F90E09C012051F7
:10028000304081E090E0022E02C0880F991F0A944E
:10029000E2F7842B8C931CC089818831C8F0898156
:1002A0008032B0F4A2E3B0E0E2E3F0E08081482FD6
:1002B0008981882F90E09C012851304081E090E0B6
:1002C000022E02C0880F991F0A94E2F7842B8C93A8
:1002D0000F900F90CF91DF910895DF93CF9300D0CF
:1002E000CDB7DEB78A8319828A81883090F4E9E33A
:1002F000F0E08081482F8A81282F30E081E090E073
:10030000022E02C0880F991F0A94E2F78423898382
:1003100050C08A818830C0F08A818031A8F4E6E339
:10032000F0E08081482F8A81882F90E09C0128503E
:10033000304081E090E0022E02C0880F991F0A949D
:10034000E2F78423898335C08A818031C0F08A81B5
:100350008831A8F4E3E3F0E08081482F8A81882F78
:1003600090E09C012051304081E090E0022E02C0DC
:10037000880F991F0A94E2F7842389831AC08A811F
:100380008831B8F08A818032A0F4E0E3F0E0808127
:10039000482F8A81882F90E09C012851304081E0CD
:1003A00090E0022E02C0880F991F0A94E2F784237E
:1003B000898389810F900F90CF91DF910895DF930A
:1003C000CF9300D0CDB7DEB789836A838A8181302D
:1003D00009F070C089818830A0F4AAE3B0E0EAE3B4
:1003E000F0E08081482F8981282F30E081E090E083
:1003F000022E02C0880F991F0A94E2F7842B8C9377
:10040000CEC089818830D0F089818031B8F4A7E3EB
:10041000B0E0E7E3F0E08081482F8981882F90E009
:100420009C012850304081E090E0022E02C0880FED
:10043000991F0A94E2F7842B8C93B1C08981803193
:10044000D0F089818831B8F4A4E3B0E0E4E3F0E0CF
:100450008081482F8981882F90E09C012051304075
:1004600081E090E0022E02C0880F991F0A94E2F703
:10047000842B8C9394C08981883108F490C0898141
:10048000803208F08CC0A1E3B0E0E1E3F0E08081CD
:10049000482F8981882F90E09C012851304081E0CD
:1004A00090E0022E02C0880F991F0A94E2F7842B75
:1004B0008C9375C08A81882309F071C08981883046
:1004C000A8F4AAE3B0E0EAE3F0E08081482F898154
:1004D000282F30E081E090E0022E02C0880F991FA3
:1004E0000A94E2F7809584238C9359C089818830DF
:1004F000D8F089818031C0F4A7E3B0E0E7E3F0E011
:100500008081482F8981882F90E09C0128503040BD
:1005100081E090E0022E02C0880F991F0A94E2F752
:10052000809584238C933BC089818031D8F0898168
:100530008831C0F4A4E3B0E0E4E3F0E08081482F28
:100540008981882F90E09C012051304081E090E02B
:10055000022E02C0880F991F0A94E2F78095842327
:100560008C931DC089818831D0F089818032B8F4A4
:10057000A1E3B0E0E1E3F0E08081482F8981882F9A
:1005800090E09C012851304081E090E0022E02C0B2
:10059000880F991F0A94E2F7809584238C930F901B
:1005A0000F90CF91DF910895DF93CF93CDB7DEB752
:1005B000AFE5B0E0EFE5F0E0808180688C93CF910B
:1005C000DF910895DF93CF93CDB7DEB7A9E5B0E013
:1005D000E9E5F0E0808184608C93CF91DF9108950C
:1005E000DF93CF93CDB7DEB7A9E5B0E0E9E5F0E062
:1005F000808181608C93CF91DF910895DF93CF93B9
:10060000CDB7DEB7A9E5B0E0E9E5F0E08081806232
:100610008C93CF91DF910895DF93CF93CDB7DEB761
:10062000ABE5B0E0EBE5F0E0808180628C93CF91A8
:10063000DF910895DF93CF9300D00F92CDB7DEB74F
:1006400089838981282F30E03B832A838A819B819B
:10065000009731F02A813B812130310549F00FC0EC
:10066000A4E5B0E0E4E5F0E080818F7B8C9307C0E7
:10067000A4E5B0E0E4E5F0E0808180648C930F9025
:100680000F900F90CF91DF910895DF93CF93CDB767
:10069000DEB7AFE5B0E0EFE5F0E080818F778C93D7
:1006A000CF91DF910895DF93CF93CDB7DEB7A9E562
:1006B000B0E0E9E5F0E080818E7F8C93CF91DF910F
:1006C0000895DF93CF93CDB7DEB7A8E3B0E0E8E3BA
:1006D000F0E0908180E189278C93CF91DF9108959C
:1006E000DF93CF93CDB7DEB78CE061E00E94DF01EE
:1006F0008CE060E00E947800CF91DF910895DF9355
:10070000CF93CDB7DEB7A8E3B0E0E8E3F0E09081A7
:1007100080E289278C93CF91DF910895DF93CF9367
:10072000CDB7DEB78DE061E00E94DF018DE060E0D3
:100730000E947800CF91DF910895DF93CF93CDB7DA
:10074000DEB7A8E3B0E0E8E3F0E0908180E4892739
:100750008C93CF91DF910895DF93CF93CDB7DEB720
:100760008EE061E00E94DF018EE060E00E94780090
:10077000CF91DF910895DF93CF93CDB7DEB7A8E394
:10078000B0E0E8E3F0E0908180E889278C93CF9196
:10079000DF910895DF93CF93CDB7DEB78FE061E0AF
:1007A0000E94DF018FE060E00E947800CF91DF912E
:1007B0000895DF93CF93CDB7DEB78CE061E00E9460
:1007C0007800CF91DF910895DF93CF93CDB7DEB757
:1007D0008DE061E00E947800CF91DF910895DF9372
:1007E000CF93CDB7DEB78EE061E00E947800CF9165
:1007F000DF910895DF93CF93CDB7DEB78FE061E04F
:100800000E947800CF91DF910895DF93CF9300D0BD
:10081000CDB7DEB71A82198214C089819A81880FF8
:10082000991F9C01220F331F220F331F820F931F2A
:10083000FC01E659FF4F108289819A8101969A83C3
:10084000898389819A818630910538F383E595E023
:100850000E943D0682E80E946B060E94E6060E9406
:10086000D4020F900F90CF91DF910895DF93CF9333
:10087000CDB7DEB728970FB6F894DEBF0FBECDBF59
:100880009A8389837C836B835E834D8338872F8330
:100890008F819885880F991F9C01220F331F220F8B
:1008A000331F820F931FFC01EE58FF4F89819A81FD
:1008B000918380838F819885880F991F9C01220FD7
:1008C000331F220F331F820F931FFC01E559FF4F87
:1008D0008B819C81918380838F819885880F991F5C
:1008E0009C01220F331F220F331F820F931FFC0125
:1008F000E359FF4F8D819E81918380838F819885FD
:10090000880F991F9C01220F331F220F331F820F64
:10091000931FFC01E659FF4F81E080838F8198850A
:10092000880F991F9C01220F331F220F331F820F44
:10093000931FFC01EF58FF4F108228960FB6F894D2
:10094000DEBF0FBECDBFCF91DF910895DF93CF9370
:1009500000D00F92CDB7DEB71B821A82809165005E
:100960009091660089831B824AC08B81882F90E01A
:10097000880F991F9C01220F331F220F331F820FF4
:10098000931FFC01EF58FF4F80818823A9F58B81CD
:10099000882F90E0880F991F9C01220F331F220F90
:1009A000331F820F931FFC01EF58FF4F81E08083BC
:1009B0008B81882F90E0880F991F9C01220F331F95
:1009C000220F331F820F931FFC01EE58FF4F01903F
:1009D000F081E02D09958B81882F90E0880F991F79
:1009E0009C01220F331F220F331F820F931FFC0124
:1009F000EF58FF4F82E080838B818F5F8B838B81E9
:100A0000863008F4B2CFAFCFDF93CF9300D00F92F0
:100A1000CDB7DEB79B838A8319823CC08981882F3A
:100A200090E0880F991F9C01220F331F220F331F64
:100A3000820F931FFC01E159FF4F208131818A8190
:100A40009B812817390719F58981882F90E0880F35
:100A5000991F9C01220F331F220F331F820F931FF8
:100A6000FC01EE58FF4F118210828981882F90E09F
:100A7000880F991F9C01220F331F220F331F820FF3
:100A8000931FFC01EF58FF4F83E0808306C08981EC
:100A90008F5F89838981863008F20F900F900F90C5
:100AA000CF91DF910895EF92FF920F931F93DF9301
:100AB000CF93CDB7DEB78091600090916100A09197
:100AC0006200B09163000196A11DB11D809360008A
:100AD00090936100A0936200B09363001092B30002
:100AE0001092B20098C08091B2009091B300880F2C
:100AF000991F9C01220F331F220F331F820F931F58
:100B0000FC01EF58FF4F8081833009F47BC0E090F7
:100B10006000F0906100009162001091630080918C
:100B2000B2009091B300880F991F9C01220F331FD0
:100B3000220F331F820F931FFC01E559FF4F808165
:100B400091819C0140E050E0C801B7010E94AE07CE
:100B5000DC01CB010097A105B10509F041C08091EE
:100B6000B2009091B300880F991F9C01220F331F90
:100B7000220F331F820F931FFC01EF58FF4F10828B
:100B80008091B2009091B300880F991F9C01220FB1
:100B9000331F220F331F820F931FFC01E359FF4FB6
:100BA00020813181809165009091660082179307C2
:100BB00048F58091B2009091B300880F991F9C0175
:100BC000220F331F220F331F820F931FFC01E359A3
:100BD000FF4F80819181909366008093650012C0E1
:100BE0008091B2009091B300880F991F9C01220F51
:100BF000331F220F331F820F931FFC01EF58FF4F4B
:100C000082E080838091B2009091B300019690932E
:100C1000B3008093B2008091B2009091B30086300F
:100C2000910508F460CFCF91DF911F910F91FF9054
:100C3000EF900895DF93CF93CDB7DEB7A5E5B0E091
:100C4000E5E5F0E0808180688C93A5E5B0E0E5E51E
:100C5000F0E080818F7E8C93A5E5B0E0E5E5F0E0E3
:100C600080818F7D8C93A5E5B0E0E5E5F0E08081A3
:100C70008F7B8C93CF91DF910895DF93CF9300D03A
:100C8000CDB7DEB79A838983A3E5B0E0E3E5F0E072
:100C9000808181608C93A3E5B0E0E3E5F0E08081A2
:100CA00082608C9389819A81909369008093680017
:100CB0000F900F90CF91DF910895DF93CF930F9214
:100CC000CDB7DEB78983E2E5F0E0898180830F90BC
:100CD000CF91DF910895DF93CF930F92CDB7DEB719
:100CE0008983ECE5F0E0898180830F90CF91DF91DB
:100CF0000895DF93CF93CDB7DEB728970FB6F8945A
:100D0000DEBF0FBECDBF6D837E838F839887ECE5FA
:100D1000F0E089EF8083E2E5F0E0108219821A8228
:100D20001B821C821BC0E8E5F0E08081882F90E0E8
:100D3000817090700097B9F3A8E5B0E0E8E5F0E0C5
:100D4000808182608C9389819A81AB81BC8101967C
:100D5000A11DB11D89839A83AB83BC838D819E8144
:100D6000AF81B8859C01AD0156954795379527957C
:100D700089819A81AB81BC8182179307A407B5074B
:100D800090F228960FB6F894DEBF0FBECDBFCF917C
:100D9000DF910895DF93CF93CDB7DEB7A3E5B0E041
:100DA000E3E5F0E080818E7F8C93A3E5B0E0E3E59E
:100DB000F0E080818D7F8C93A3E5B0E0E3E5F0E087
:100DC00080818B7F8C93CF91DF910895DF93CF93B8
:100DD000CDB7DEB7A9E5B0E0E9E5F0E0808182605B
:100DE0008C93CF91DF9108951F920F920FB60F92BF
:100DF00011242F933F934F935F936F937F938F9320
:100E00009F93AF93BF93EF93FF93DF93CF93CDB7B0
:100E1000DEB780E00E945D06E0916800F091690015
:100E20000995CF91DF91FF91EF91BF91AF919F9184
:100E30008F917F916F915F914F913F912F910F9083
:100E40000FBE0F901F901895DF93CF93CDB7DEB7ED
:100E50002C970FB6F894DEBF0FBECDBF69877A8797
:100E60008B879C8719821A821B821C8224C01D8258
:100E70001E821F8218860BC08D819E81AF81B8852E
:100E80000196A11DB11D8D839E83AF83B8878D818F
:100E90009E81AF81B885803F9105A105B10560F3C2
:100EA00089819A81AB81BC810196A11DB11D898385
:100EB0009A83AB83BC8329813A814B815C8189858C
:100EC0009A85AB85BC85281739074A075B0778F2F6
:100ED0002C960FB6F894DEBF0FBECDBFCF91DF9139
:100EE0000895DF93CF93CDB7DEB70E9470030E94C1
:100EF0008E030E94AC030E94CA0381E693E061E086
:100F000070E044E050E020E030E00E9436048FE7DB
:100F100093E062E070E043E050E021E030E00E94C6
:100F200036048DE993E063E070E042E050E022E0B7
:100F300030E00E9436048BEB93E064E070E041E027
:100F400050E023E030E00E9436040E9405040E9435
:100F5000A60480E090E0CF91DF910895A1E21A2EDF
:100F6000AA1BBB1BFD010DC0AA1FBB1FEE1FFF1F4D
:100F7000A217B307E407F50720F0A21BB30BE40B9D
:100F8000F50B661F771F881F991F1A9469F76095E4
:100F90007095809590959B01AC01BD01CF0108959E
:040FA000F894FFCFF3
:00000001FF
