:100000000C942A000C9447000C9447000C94470071
:100010000C9447000C9447000C9447000C94470044
:100020000C9447000C9447000C947F140C944700E8
:100030000C9447000C9447000C9447000C94470024
:100040000C9447000C9447000C9447000C94470014
:100050000C94470011241FBECFE5D8E0DEBFCDBF12
:1000600011E0A0E6B0E0E0E6FDE202C005900D92EE
:10007000A630B107D9F711E0A6E0B1E001C01D92AA
:10008000AD32B107E1F70E940F160C94AE160C9436
:100090000000EF92FF920F931F937B018C0120E0F1
:1000A00030E040E05FE40E94F50388238CF0C80153
:1000B000B70120E030E040E05FE40E94C1010E940F
:1000C00055049B01AC01205030404040504806C0D0
:1000D000C801B7010E9455049B01AC01B901CA01D6
:1000E0001F910F91FF90EF900895A0E0B0E0EBE733
:1000F000F0E00C947716DC012B01FA019C91923010
:1001000008F439C1EB018881823008F433C194309E
:1001100069F4843009F02FC111969C91119789815F
:10012000981709F428C1ABE8B0E025C1843009F480
:1001300021C18230A9F4923009F01DC19A01AD01AC
:1001400088E0EA010990AE01E90109929E0181501F
:10015000C1F7E201898111969C918923818308C1AD
:10016000923009F407C112962D903C901397EB0141
:100170008A819B811496AD90BD90CD90DC901797AD
:10018000EC80FD800E811F819101281B390BB90184
:1001900037FF04C066277727621B730B6032710537
:1001A0000CF061C0121613066CF537014801062EDB
:1001B00004C096948794779467940A94D2F721E0C8
:1001C00030E040E050E004C0220F331F441F551FB1
:1001D0006A95D2F721503040404050402E213F21B7
:1001E00040235123211531054105510521F021E01E
:1001F00030E040E050E079018A01E628F72808293C
:1002000019293CC0232BD1F1260E371E350146019A
:10021000062E04C096948794779467940A94D2F734
:1002200021E030E040E050E004C0220F331F441FC3
:10023000551F6A95D2F721503040404050402A2146
:100240003B214C215D21211531054105510521F04E
:1002500021E030E040E050E059016A01A628B728CB
:10026000C828D9280BC0821593052CF01C01AA249C
:10027000BB24650103C0EE24FF24870111969C91E5
:10028000D20111968C91981709F445C0992339F041
:10029000A80197012A193B094C095D0906C0A6016E
:1002A00095012E193F09400B510B57FD08C01182D3
:1002B0003382228224833583468357831DC081E0A5
:1002C00081833382228288279927DC01821B930B4A
:1002D000A40BB50B84839583A683B7830DC0220F2F
:1002E000331F441F551F24833583468357838281E0
:1002F000938101979383828324813581468157813D
:10030000DA01C9010197A109B1098F5F9F4FAF4F72
:10031000BF4328F30BC0918333822282EA0CFB1C7B
:100320000C1D1D1DE482F5820683178383E0808304
:10033000248135814681578157FF1AC0C901AA27F8
:1003400097FDA095BA2F81709070A070B0705695EF
:10035000479537952795822B932BA42BB52B848318
:100360009583A683B7838281938101969383828349
:10037000DF0101C0D201CD01CDB7DEB7E2E10C94BF
:100380009316A0E2B0E0E7ECF1E00C9483166983E9
:100390007A838B839C832D833E834F835887E9E048
:1003A000EE2EF12CEC0EFD1ECE010196B7010E943F
:1003B0007E058E010F5E1F4FCE010596B8010E948B
:1003C0007E058A8991E089278A8BC701B801AE0131
:1003D000475E5F4F0E9475000E94A904A096E6E068
:1003E0000C949F16A0E2B0E0E8EFF1E00C948316C5
:1003F00069837A838B839C832D833E834F835887C5
:10040000F9E0EF2EF12CEC0EFD1ECE010196B701A6
:100410000E947E058E010F5E1F4FCE010596B8012A
:100420000E947E05C701B801AE01475E5F4F0E9482
:1004300075000E94A904A096E6E00C949F16A0E225
:10044000B0E0E5E2F2E00C94771669837A838B835F
:100450009C832D833E834F835887CE010196BE0136
:10046000675F7F4F0E947E05CE010596BE016F5EDD
:100470007F4F0E947E059985923088F0898982306D
:10048000C8F0943019F4823051F404C0843029F457
:10049000923081F48BE890E0C6C0923049F420E0BD
:1004A0009A858A89981321E02A87CE010996BBC0D4
:1004B000823049F420E09A858A89981321E02A8BBA
:1004C000CE014196B0C02D843E844F8458886D88FB
:1004D0007E888F88988CEE24FF248701AA24BB2471
:1004E000650140E050E060E070E0E0E0F0E0C10174
:1004F00081709070892BE9F0E60CF71C081D191D1E
:100500009A01AB012A0D3B1D4C1D5D1D80E090E062
:10051000A0E0B0E0E614F7040805190520F481E036
:1005200090E0A0E0B0E0BA01A901480F591F6A1F8E
:100530007B1FAA0CBB1CCC1CDD1C97FE08C081E0F5
:1005400090E0A0E0B0E0A82AB92ACA2ADB2A3196B6
:10055000E032F10549F0660C771C881C991C569412
:10056000479437942794C3CFFA85EA892B893C892D
:100570008B859C85280F391F2E5F3F4F17C0CA01FE
:1005800081709070892B61F016950795F794E79428
:1005900080E090E0A0E0B0E8E82AF92A0A2B1B2BC3
:1005A00076956795579547952F5F3F4F77FDE7CF36
:1005B0000CC0440F551F661F771F17FD4160EE0CDE
:1005C000FF1C001F111F21503040403090E05907A0
:1005D00090E0690790E4790760F32B8F3C8FDB0193
:1005E000CA018F779070A070B07080349105A1051A
:1005F000B10561F447FD0AC0E114F10401051105DC
:1006000029F0405C5F4F6F4F7F4F40781A8EFE1786
:1006100011F081E08A8F4D8F5E8F6F8F78A383E01A
:10062000898FCE0149960E94A904A096E2E10C941C
:100630009316A8E1B0E0EFE1F3E00C947F16698334
:100640007A838B839C832D833E834F835887B9E0C5
:10065000EB2EF12CEC0EFD1ECE010196B7010E948F
:100660007E058E010F5E1F4FCE010596B8010E94D8
:100670007E052985223008F47EC03989323010F495
:10068000B8017CC08A859A8989278A87243011F02D
:10069000223031F4231709F06EC06BE870E06EC0B1
:1006A000343039F41D861E861F86188A1C861B86E8
:1006B00004C0323021F484E08987B7015FC02B8504
:1006C0003C858B899C89281B390B3C872B87ED84C3
:1006D000FE840F851889AD88BE88CF88D88CEA142F
:1006E000FB040C051D0540F4EE0CFF1C001F111F40
:1006F000215030403C872B8720E030E040E050E044
:1007000080E090E0A0E0B0E460E070E0EA14FB0478
:100710000C051D0540F0282B392B4A2B5B2BEA18C2
:10072000FB080C091D09B695A79597958795EE0CC2
:10073000FF1C001F111F6F5F7F4F6F31710531F775
:10074000DA01C9018F779070A070B0708034910584
:10075000A105B10561F427FD0AC0E114F10401050A
:10076000110529F0205C3F4F4F4F5F4F20782D87B8
:100770003E874F87588BBE01675F7F4FCB010E943A
:10078000A9046896EAE00C949B16A8E1B0E0EBECB3
:10079000F3E00C94831669837A838B839C832D8387
:1007A0003E834F83588789E0E82EF12CEC0EFD1E26
:1007B000CE010196B7010E947E058E010F5E1F4F8C
:1007C000CE010596B8010E947E058985823040F0F1
:1007D0008989823028F0C701B8010E94F60501C05E
:1007E0008FEF6896E6E00C949F16A8E1B0E0EBEF7F
:1007F000F3E00C94831669837A838B839C832D8327
:100800003E834F83588789E0E82EF12CEC0EFD1EC5
:10081000CE010196B7010E947E058E010F5E1F4F2B
:10082000CE010596B8010E947E058985823040F090
:100830008989823028F0C701B8010E94F60501C0FD
:100840008FEF6896E6E00C949F16A8E1B0E0EBE22B
:10085000F4E00C94831669837A838B839C832D83C5
:100860003E834F83588789E0E82EF12CEC0EFD1E65
:10087000CE010196B7010E947E058E010F5E1F4FCB
:10088000CE010596B8010E947E058985823040F030
:100890008989823028F0C701B8010E94F60501C09D
:1008A00081E06896E6E00C949F16ACE0B0E0EBE5E2
:1008B000F4E00C94871669837A838B839C83CE0142
:1008C0000196BE016B5F7F4F0E947E058D81823055
:1008D00061F1823050F1843021F48E81882351F10E
:1008E0002EC02F81388537FD20C06E812F31310514
:1008F0001CF06623F9F023C08EE190E0821B930B7D
:1009000029853A854B855C8504C056954795379572
:1009100027958A95D2F76623B1F05095409530958A
:1009200021953F4F4F4F5F4F0EC020E030E040E039
:1009300050E009C02FEF3FEF4FEF5FE704C020E02A
:1009400030E040E050E8B901CA012C96E2E00C9496
:10095000A316DF92EF92FF920F931F93FC01E480A6
:10096000F58006811781D1808081823048F480E053
:1009700090E0A0E1B0E0E82AF92A0A2B1B2BA5C0E1
:10098000843009F49FC0823021F4EE24FF248701D3
:1009900005C0E114F1040105110519F4E0E0F0E0EF
:1009A00096C0628173819FEF623879070CF05BC05B
:1009B00022E83FEF261B370B2A3131052CF020E0CF
:1009C00030E040E050E02AC0B801A701022E04C088
:1009D00076956795579547950A94D2F781E090E010
:1009E000A0E0B0E004C0880F991FAA1FBB1F2A9582
:1009F000D2F70197A109B1098E219F21A023B1232C
:100A00000097A105B10521F081E090E0A0E0B0E001
:100A10009A01AB01282B392B4A2B5B2BDA01C90138
:100A20008F779070A070B07080349105A105B105EA
:100A300039F427FF09C0205C3F4F4F4F5F4F04C080
:100A4000215C3F4F4F4F5F4FE0E0F0E02030A0E0EF
:100A50003A07A0E04A07A0E45A0710F0E1E0F0E00E
:100A600079018A0127C06038710564F5FB01E158FE
:100A7000FF4FD801C7018F779070A070B07080349D
:100A80009105A105B10539F4E7FE0DC080E490E0C1
:100A9000A0E0B0E004C08FE390E0A0E0B0E0E80E9A
:100AA000F91E0A1F1B1F17FF05C016950795F7941F
:100AB000E794319687E016950795F794E7948A9521
:100AC000D1F705C0EE24FF248701EFEFF0E06E2F91
:100AD000679566276795902F9F77D794DD24D794E5
:100AE0008E2F8695492F462B582F5D29B701CA01B5
:100AF0001F910F91FF90EF90DF900895FC01DB01B3
:100B0000408151812281622F6F7770E0221F22275E
:100B1000221F9381892F880F822B282F30E0991F65
:100B20009927991F11969C93119721153105A9F5C5
:100B3000411551056105710511F482E037C082E865
:100B40009FEF13969C938E9312979A01AB0167E0E7
:100B5000220F331F441F551F6A95D1F783E08C93F2
:100B60000DC0220F331F441F551F12968D919C916B
:100B70001397019713969C938E931297203080E0E1
:100B8000380780E0480780E4580758F314962D93FF
:100B90003D934D935C93179708952F3F310579F45A
:100BA000411551056105710519F484E08C93089590
:100BB00064FF03C081E08C9312C01C9210C02F57B9
:100BC000304013963C932E93129783E08C9387E0EA
:100BD000440F551F661F771F8A95D1F770641496CE
:100BE0004D935D936D937C93179708951F93DC014C
:100BF000FB019C91923008F447C08081823008F458
:100C000043C0943051F411961C91843099F5818140
:100C1000682F70E0611B71093FC0843021F0923071
:100C200031F48230B9F18181882389F12DC0119688
:100C30001C9111978230F1F081811817D9F4129626
:100C40002D913C911397828193818217930794F0A1
:100C500028173907BCF014968D919D910D90BC9189
:100C6000A02D2481358146815781281739074A07ED
:100C70005B0718F4112341F00AC082179307A407F9
:100C8000B50740F4112319F061E070E005C06FEF83
:100C90007FEF02C060E070E0CB011F910895DF9309
:100CA000CF930F92CDB7DEB719828AE00E947E07FC
:100CB000882369F46EE170E080E090E00E94AC145B
:100CC0008AE00E947E07882311F481E0898389816C
:100CD0000F90CF91DF910895DF93CF930F92CDB70F
:100CE000DEB7198284E10E947E07882369F06EE1F5
:100CF00070E080E090E00E94AC1484E10E947E07E6
:100D0000882311F081E0898389810F90CF91DF9151
:100D10000895DF93CF9300D0CDB7DEB789836A8380
:100D20008A81882309F074C089818830A8F4ABE3F4
:100D3000B0E0EBE3F0E08081482F8981282F30E09C
:100D400081E090E0022E02C0880F991F0A94E2F71A
:100D5000809584238C93CDC089818830D8F0898197
:100D60008031C0F4A8E3B0E0E8E3F0E08081482FF0
:100D70008981882F90E09C012850304081E090E0EC
:100D8000022E02C0880F991F0A94E2F780958423EF
:100D90008C93AFC089818031D8F089818831C0F4CB
:100DA000A5E3B0E0E5E3F0E08081482F8981882F5A
:100DB00090E09C012051304081E090E0022E02C082
:100DC000880F991F0A94E2F7809584238C9391C031
:100DD0008981883108F48DC08981803208F089C00A
:100DE000A2E3B0E0E2E3F0E08081482F8981882F20
:100DF00090E09C012851304081E090E0022E02C03A
:100E0000880F991F0A94E2F7809584238C9371C010
:100E10008A81813009F06DC089818830A0F4ABE30C
:100E2000B0E0EBE3F0E08081482F8981282F30E0AB
:100E300081E090E0022E02C0880F991F0A94E2F729
:100E4000842B8C9356C089818830D0F08981803181
:100E5000B8F4A8E3B0E0E8E3F0E08081482F8981AE
:100E6000882F90E09C012850304081E090E0022ED5
:100E700002C0880F991F0A94E2F7842B8C9339C023
:100E800089818031D0F089818831B8F4A5E3B0E060
:100E9000E5E3F0E08081482F8981882F90E09C0174
:100EA0002051304081E090E0022E02C0880F991F4F
:100EB0000A94E2F7842B8C931CC089818831C8F096
:100EC00089818032B0F4A2E3B0E0E2E3F0E0808117
:100ED000482F8981882F90E09C012851304081E083
:100EE00090E0022E02C0880F991F0A94E2F7842B2B
:100EF0008C930F900F90CF91DF910895DF93CF9354
:100F000000D0CDB7DEB78A8319828A81883090F409
:100F1000E9E3F0E08081482F8A81282F30E081E0EA
:100F200090E0022E02C0880F991F0A94E2F78423F2
:100F3000898350C08A818830C0F08A818031A8F4CA
:100F4000E6E3F0E08081482F8A81882F90E09C01C1
:100F50002850304081E090E0022E02C0880F991F97
:100F60000A94E2F78423898335C08A818031C0F0F6
:100F70008A818831A8F4E3E3F0E08081482F8A81F8
:100F8000882F90E09C012051304081E090E0022EBB
:100F900002C0880F991F0A94E2F7842389831AC03C
:100FA0008A818831B8F08A818032A0F4E0E3F0E0F1
:100FB0008081482F8A81882F90E09C012851304001
:100FC00081E090E0022E02C0880F991F0A94E2F798
:100FD0008423898389810F900F90CF91DF910895A9
:100FE000DF93CF9300D0CDB7DEB789836A838A8140
:100FF000813009F070C089818830A0F4AAE3B0E0A4
:10100000EAE3F0E08081482F8981282F30E081E0F9
:1010100090E0022E02C0880F991F0A94E2F7842BF9
:101020008C93CEC089818830D0F089818031B8F42A
:10103000A7E3B0E0E7E3F0E08081482F8981882FC3
:1010400090E09C012850304081E090E0022E02C0E8
:10105000880F991F0A94E2F7842B8C93B1C0898181
:101060008031D0F089818831B8F4A4E3B0E0E4E3C2
:10107000F0E08081482F8981882F90E09C012051E9
:10108000304081E090E0022E02C0880F991F0A9440
:10109000E2F7842B8C9394C08981883108F490C046
:1010A0008981803208F08CC0A1E3B0E0E1E3F0E098
:1010B0008081482F8981882F90E09C012851304001
:1010C00081E090E0022E02C0880F991F0A94E2F797
:1010D000842B8C9375C08A81882309F071C0898123
:1010E0008830A8F4AAE3B0E0EAE3F0E08081482F7A
:1010F0008981282F30E081E090E0022E02C0880F25
:10110000991F0A94E2F7809584238C9359C08981B2
:101110008830D8F089818031C0F4A7E3B0E0E7E3FC
:10112000F0E08081482F8981882F90E09C01285031
:10113000304081E090E0022E02C0880F991F0A948F
:10114000E2F7809584238C933BC089818031D8F06D
:1011500089818831C0F4A4E3B0E0E4E3F0E0808169
:10116000482F8981882F90E09C012051304081E0F8
:1011700090E0022E02C0880F991F0A94E2F7809532
:1011800084238C931DC089818831D0F0898180327D
:10119000B8F4A1E3B0E0E1E3F0E08081482F898179
:1011A000882F90E09C012851304081E090E0022E91
:1011B00002C0880F991F0A94E2F7809584238C93CC
:1011C0000F900F90CF91DF910895DF93CF93CDB71C
:1011D000DEB7AFE5B0E0EFE5F0E0808180688C93AA
:1011E000CF91DF910895DF93CF93CDB7DEB7A9E517
:1011F000B0E0E9E5F0E0808184608C93CF91DF91ED
:101200000895DF93CF93CDB7DEB7A9E5B0E0E9E568
:10121000F0E0808181608C93CF91DF910895DF931E
:10122000CF93CDB7DEB7A9E5B0E0E9E5F0E0808186
:1012300080628C93CF91DF910895DF93CF93CDB7E8
:10124000DEB7ABE5B0E0EBE5F0E0808180628C9347
:10125000CF91DF910895DF93CF9300D00F92CDB758
:10126000DEB789838981282F30E03B832A838A81F6
:101270009B81009731F02A813B812130310549F073
:101280000FC0A4E5B0E0E4E5F0E080818F7B8C93B3
:1012900007C0A4E5B0E0E4E5F0E0808180648C93D1
:1012A0000F900F900F90CF91DF910895DF93CF9320
:1012B000CDB7DEB7AFE5B0E0EFE5F0E080818F7746
:1012C0008C93CF91DF910895DF93CF93CDB7DEB7A5
:1012D000A9E5B0E0E9E5F0E080818E7F8C93CF91C5
:1012E000DF910895DF93CF93CDB7DEB785E161E05D
:1012F0000E94F00786E161E00E94F00787E161E06B
:101300000E94F00782E160E00E94F00783E160E064
:101310000E94F00784E160E00E94F00785E161E04F
:101320000E94890686E161E00E94890687E161E00A
:101330000E94890682E161E00E94890683E161E002
:101340000E94890684E161E00E948906CF91DF91C5
:101350000895DF93CF93CDB7DEB728970FB6F894F3
:10136000DEBF0FBECDBF9E838D831C821B821A827F
:1013700019821C826EC08C818B5E60E00E9489069F
:101380001B825BC08B818E5E0E947E078A838A816E
:10139000882309F03EC08C81882319F08C8181302C
:1013A000C1F58B818823A9F580910601282F30E0B3
:1013B00038872F838F8198858130910569F02F813F
:1013C00038852230310561F08F819885009791F53D
:1013D00081E0809306012EC082E0809306012AC03E
:1013E0008B81282F30E08C81482F50E0C901880F75
:1013F000991F820F931F840F951FFC01E450FF4F2C
:101400008081ED81FE81808382E0898310920601D4
:1014100011C08A81813071F48C81882319F08C810C
:10142000813041F48B81882329F410920601809148
:10143000060189838B818F5F8B838B81833008F4D6
:10144000A1CF8C818B5E61E00E9489068C818F5FC9
:101450008C838C81833008F48ECF898128960FB6D7
:10146000F894DEBF0FBECDBFCF91DF910895DF931B
:10147000CF93CDB7DEB768970FB6F894DEBF0FBE37
:10148000CDBF83E061E00E94F00782E061E00E944E
:10149000F00781E061E00E94F00784E061E00E94D3
:1014A000F00785E061E00E94F00786E061E00E94BD
:1014B000F00787E061E00E94F00780E090E0A8EC90
:1014C000B2E48D8B9E8BAF8BB88F6D897E898F89AF
:1014D000988D2BEA3AEA4AE250E40E941F02DC01AE
:1014E000CB01898B9A8BAB8BBC8B69897A898B8971
:1014F0009C8920E030E040E85FE30E9425048823D7
:101500001CF481E0888B91C069897A898B899C89D8
:1015100020E030E04FE753E40E94C50318160CF0BA
:101520007BC06D897E898F89988D20E030E04AE705
:1015300054E40E941903DC01CB018C879D87AE87A0
:10154000BF876C857D858E859F8520E030E04AEFE2
:1015500054E40E941F02DC01CB0188879987AA8787
:10156000BB87688579858A859B8520E030E040E8E7
:101570005FE30E94250488232CF481E090E09F83A0
:101580008E833FC0688579858A859B8520E03FEF03
:101590004FE757E40E94C50318164CF56C857D850E
:1015A0008E859F8520E030E040E251E40E941F02DA
:1015B000DC01CB01BC01CD010E944900DC01CB0163
:1015C0009F838E830FC088EC90E09D838C838C81F9
:1015D0009D810197F1F79D838C838E819F81019777
:1015E0009F838E838E819F81009769F724C06885D1
:1015F00079858A859B850E944900DC01CB019F8308
:101600008E838E819F819B838A838A819B810197B0
:10161000F1F79B838A830FC069897A898B899C89BA
:101620000E944900DC01CB01888B888989838981EC
:101630008A95F1F7898383E30E94390B82E30E9444
:10164000390B88E20E94390B8CE00E94390B81E053
:101650000E94390B86E00E94390B82E00E94390B10
:1016600068960FB6F894DEBF0FBECDBFCF91DF9165
:1016700008950F931F93DF93CF93CDB7DEB7C9546F
:10168000D0400FB6F894DEBF0FBECDBFFE01E75BC2
:10169000FF4F808382E060E00E94890681E060E085
:1016A0000E94890683E060E00E948906ABE3B0E017
:1016B000FE01E75BFF4F8081982F907FEBE3F0E026
:1016C00080818F70892B8C9383E061E00E94890672
:1016D000FE01EB5BFF4F80E090E0A8ECB2E480837A
:1016E0009183A283B3838E010F5B1F4FFE01EB5BDF
:1016F000FF4F60817181828193812BEA3AEA4AE24D
:1017000050E40E941F02DC01CB01F8018083918329
:10171000A283B383FE01EF5BFF4F60817181828101
:10172000938120E030E040E85FE30E9425048823B5
:1017300034F481E0FE01E05CFF4F80839DC0FE0138
:10174000EF5BFF4F608171818281938120E030E007
:101750004FE753E40E94C50318160CF07EC0FE014B
:10176000EB5BFF4F608171818281938120E030E0EB
:101770004AE754E40E941903DC01CB018CAF9DAF12
:10178000AEAFBFAF6CAD7DAD8EAD9FAD20E030E0B4
:101790004AEF54E40E941F02DC01CB0188AF99AFED
:1017A000AAAFBBAF68AD79AD8AAD9BAD20E030E0AC
:1017B00040E85FE30E94250488232CF481E090E058
:1017C0009FAB8EAB3FC068AD79AD8AAD9BAD20E0DD
:1017D0003FEF4FE757E40E94C50318164CF56CAD78
:1017E0007DAD8EAD9FAD20E030E040E251E40E943F
:1017F0001F02DC01CB01BC01CD010E944900DC01CC
:10180000CB019FAB8EAB0FC088EC90E09DAB8CAB57
:101810008CA99DA90197F1F79DAB8CAB8EA99FA9CF
:1018200001979FAB8EAB8EA99FA9009769F72DC03A
:1018300068AD79AD8AAD9BAD0E944900DC01CB015A
:101840009FAB8EAB8EA99FA99BAB8AAB8AA99BA9A4
:101850000197F1F79BAB8AAB18C0FE01EF5BFF4F1E
:1018600060817181828193810E944900DC01CB01FA
:10187000FE01E05CFF4F8083FE01E05CFF4F808152
:1018800089AB89A98A95F1F789AB83E060E00E9472
:101890008906ABE3B0E0FE01E75BFF4F8081882F54
:1018A00090E082959295907F9827807F9827982F37
:1018B000EBE3F0E080818F70892B8C9383E061E013
:1018C0000E94890680E090E0A8ECB2E48DA79EA774
:1018D000AFA7B8AB6DA57EA58FA598A92BEA3AEA6C
:1018E0004AE250E40E941F02DC01CB0189A79AA7BB
:1018F000ABA7BCA769A57AA58BA59CA520E030E085
:1019000040E85FE30E94250488231CF481E088A757
:1019100091C069A57AA58BA59CA520E030E04FE792
:1019200053E40E94C50318160CF07BC06DA57EA57C
:101930008FA598A920E030E04AE754E40E941903FB
:10194000DC01CB018CA39DA3AEA3BFA36CA17DA1A1
:101950008EA19FA120E030E04AEF54E40E941F02D4
:10196000DC01CB0188A399A3AAA3BBA368A179A199
:101970008AA19BA120E030E040E85FE30E942504BB
:1019800088232CF481E090E09F8F8E8F3FC068A168
:1019900079A18AA19BA120E03FEF4FE757E40E9485
:1019A000C50318164CF56CA17DA18EA19FA120E066
:1019B00030E040E251E40E941F02DC01CB01BC0197
:1019C000CD010E944900DC01CB019F8F8E8F0FC09B
:1019D00088EC90E09D8F8C8F8C8D9D8D0197F1F719
:1019E0009D8F8C8F8E8D9F8D01979F8F8E8F8E8D6B
:1019F0009F8D009769F724C068A179A18AA19BA156
:101A00000E944900DC01CB019F8F8E8F8E8D9F8DB0
:101A10009B8F8A8F8A8D9B8D0197F1F79B8F8A8F81
:101A20000FC069A57AA58BA59CA50E944900DC0181
:101A3000CB0188A788A5898F898D8A95F1F7898F31
:101A400083E060E00E94890680E090E0AAEFB3E4C2
:101A50008D8B9E8BAF8BB88F6D897E898F89988D8A
:101A60002BEA3AEA4AE250E40E941F02DC01CB0171
:101A7000898B9A8BAB8BBC8B69897A898B899C8982
:101A800020E030E040E85FE30E94250488231CF456
:101A900081E0888B91C069897A898B899C8920E053
:101AA00030E04FE753E40E94C50318160CF07BC0EA
:101AB0006D897E898F89988D20E030E04AE754E473
:101AC0000E941903DC01CB018C879D87AE87BF87FD
:101AD0006C857D858E859F8520E030E04AEF54E45B
:101AE0000E941F02DC01CB0188879987AA87BB87E8
:101AF000688579858A859B8520E030E040E85FE352
:101B00000E94250488232CF481E090E09F838E833B
:101B10003FC0688579858A859B8520E03FEF4FE748
:101B200057E40E94C50318164CF56C857D858E859B
:101B30009F8520E030E040E251E40E941F02DC017A
:101B4000CB01BC01CD010E944900DC01CB019F8388
:101B50008E830FC088EC90E09D838C838C819D8167
:101B60000197F1F79D838C838E819F8101979F83DD
:101B70008E838E819F81009769F724C0688579855F
:101B80008A859B850E944900DC01CB019F838E835F
:101B90008E819F819B838A838A819B810197F1F744
:101BA0009B838A830FC069897A898B899C890E946B
:101BB0004900DC01CB01888B8889898389818A95DA
:101BC000F1F78983C75BDF4F0FB6F894DEBF0FBE16
:101BD000CDBFCF91DF911F910F9108950F931F9368
:101BE000DF93CF93CDB7DEB7C954D0400FB6F8948A
:101BF000DEBF0FBECDBFFE01E75BFF4F808382E0FB
:101C000060E00E94890681E061E00E94890683E02D
:101C100060E00E948906ABE3B0E0FE01E75BFF4FA6
:101C20008081982F907FEBE3F0E080818F70892B8B
:101C30008C9383E061E00E948906FE01EB5BFF4F1D
:101C400080E090E0A8ECB2E480839183A283B38328
:101C50008E010F5B1F4FFE01EB5BFF4F60817181B7
:101C6000828193812BEA3AEA4AE250E40E941F0201
:101C7000DC01CB01F80180839183A283B383FE0151
:101C8000EF5BFF4F608171818281938120E030E0C2
:101C900040E85FE30E942504882334F481E0FE01DC
:101CA000E05CFF4F80839DC0FE01EF5BFF4F6081D2
:101CB00071818281938120E030E04FE753E40E94FC
:101CC000C50318160CF07EC0FE01EB5BFF4F608170
:101CD00071818281938120E030E04AE754E40E94E0
:101CE0001903DC01CB018CAF9DAFAEAFBFAF6CADC4
:101CF0007DAD8EAD9FAD20E030E04AEF54E40E9410
:101D00001F02DC01CB0188AF99AFAAAFBBAF68ADB2
:101D100079AD8AAD9BAD20E030E040E85FE30E9402
:101D2000250488232CF481E090E09FAB8EAB3FC06C
:101D300068AD79AD8AAD9BAD20E03FEF4FE757E44A
:101D40000E94C50318164CF56CAD7DAD8EAD9FADF0
:101D500020E030E040E251E40E941F02DC01CB01B0
:101D6000BC01CD010E944900DC01CB019FAB8EABD1
:101D70000FC088EC90E09DAB8CAB8CA99DA901971E
:101D8000F1F79DAB8CAB8EA99FA901979FAB8EAB52
:101D90008EA99FA9009769F72DC068AD79AD8AAD6E
:101DA0009BAD0E944900DC01CB019FAB8EAB8EA99D
:101DB0009FA99BAB8AAB8AA99BA90197F1F79BAB23
:101DC0008AAB18C0FE01EF5BFF4F60817181828199
:101DD00093810E944900DC01CB01FE01E05CFF4FD2
:101DE0008083FE01E05CFF4F808189AB89A98A95E1
:101DF000F1F789AB83E060E00E948906ABE3B0E0D5
:101E0000FE01E75BFF4F8081882F90E082959295DD
:101E1000907F9827807F9827982FEBE3F0E08081D0
:101E20008F70892B8C9383E061E00E94890680E0AB
:101E300090E0A8ECB2E48DA79EA7AFA7B8AB6DA5C4
:101E40007EA58FA598A92BEA3AEA4AE250E40E94BF
:101E50001F02DC01CB0189A79AA7ABA7BCA769A584
:101E60007AA58BA59CA520E030E040E85FE30E94C6
:101E7000250488231CF481E088A791C069A57AA570
:101E80008BA59CA520E030E04FE753E40E94C503FA
:101E900018160CF07BC06DA57EA58FA598A920E033
:101EA00030E04AE754E40E941903DC01CB018CA323
:101EB0009DA3AEA3BFA36CA17DA18EA19FA120E095
:101EC00030E04AEF54E40E941F02DC01CB0188A3FA
:101ED00099A3AAA3BBA368A179A18AA19BA120E091
:101EE00030E040E85FE30E94250488232CF481E081
:101EF00090E09F8F8E8F3FC068A179A18AA19BA19E
:101F000020E03FEF4FE757E40E94C50318164CF559
:101F10006CA17DA18EA19FA120E030E040E251E4C0
:101F20000E941F02DC01CB01BC01CD010E944900CF
:101F3000DC01CB019F8F8E8F0FC088EC90E09D8FCE
:101F40008C8F8C8D9D8D0197F1F79D8F8C8F8E8D51
:101F50009F8D01979F8F8E8F8E8D9F8D009769F734
:101F600024C068A179A18AA19BA10E944900DC013B
:101F7000CB019F8F8E8F8E8D9F8D9B8F8A8F8A8DA9
:101F80009B8D0197F1F79B8F8A8F0FC069A57AA56A
:101F90008BA59CA50E944900DC01CB0188A788A5E0
:101FA000898F898D8A95F1F7898F83E060E00E949F
:101FB000890680E090E0AAEFB3E48D8B9E8BAF8B17
:101FC000B88F6D897E898F89988D2BEA3AEA4AE22B
:101FD00050E40E941F02DC01CB01898B9A8BAB8BF2
:101FE000BC8B69897A898B899C8920E030E040E844
:101FF0005FE30E94250488231CF481E0888B91C054
:1020000069897A898B899C8920E030E04FE753E425
:102010000E94C50318160CF07BC06D897E898F89DC
:10202000988D20E030E04AE754E40E941903DC0177
:10203000CB018C879D87AE87BF876C857D858E851C
:102040009F8520E030E04AEF54E40E941F02DC014B
:10205000CB0188879987AA87BB87688579858A8518
:102060009B8520E030E040E85FE30E942504882360
:102070002CF481E090E09F838E833FC06885798552
:102080008A859B8520E03FEF4FE757E40E94C50318
:1020900018164CF56C857D858E859F8520E030E097
:1020A00040E251E40E941F02DC01CB01BC01CD01E2
:1020B0000E944900DC01CB019F838E830FC088EC16
:1020C00090E09D838C838C819D810197F1F79D83A6
:1020D0008C838E819F8101979F838E838E819F81C8
:1020E000009769F724C0688579858A859B850E9459
:1020F0004900DC01CB019F838E838E819F819B836E
:102100008A838A819B810197F1F79B838A830FC021
:1021100069897A898B899C890E944900DC01CB01FD
:10212000888B8889898389818A95F1F78983C75B40
:10213000DF4F0FB6F894DEBF0FBECDBFCF91DF915A
:102140001F910F910895DF93CF9300D00F92CDB7D9
:10215000DEB79B838A8319820EC08981282F30E0E5
:102160008A819B81FC01E20FF31F80810E94EE0DAA
:1021700089818F5F89838981282F30E08A819B81C3
:10218000FC01E20FF31F8081882339F70F900F9035
:102190000F90CF91DF910895EF92FF920F931F93CD
:1021A000DF93CF93CDB7DEB728970FB6F894DEBF95
:1021B0000FBECDBF6D837E838F83988781E090E0D3
:1021C000A0E0B0E089839A83AB83BC8336C0898169
:1021D0009A81AB81BC812AE030E040E050E0BC0154
:1021E000CD010E9436167B018C018D819E81AF81CD
:1021F000B8852AE030E040E050E0BC01CD010E940B
:102200005516DC01CB018E0D9F1DA01FB11F8983C8
:102210009A83AB83BC838D819E81AF81B8852AE090
:1022200030E040E050E0BC01CD010E945516DA01DB
:10223000C9018D839E83AF83B8878D819E81AF81D5
:10224000B8850097A105B10511F623C089819A814F
:10225000AB81BC812AE030E040E050E0BC01CD0120
:102260000E945516DC01CB01805D0E94EE0D898134
:102270009A81AB81BC812AE030E040E050E0BC01B3
:10228000CD010E945516DA01C90189839A83AB8377
:10229000BC8389819A81AB81BC8182309105A10583
:1022A000B105A0F628960FB6F894DEBF0FBECDBFDD
:1022B000CF91DF911F910F91FF90EF900895DF93E1
:1022C000CF9300D000D0CDB7DEB78B836C8380E88E
:1022D000898380EC8A838B81282F30E0CE010196A0
:1022E000FC01E20FF31F90818C81890F0E94390B52
:1022F0000F900F900F900F90CF91DF910895DF9383
:10230000CF93CDB7DEB781E00E94390BCF91DF913B
:102310000895DF93CF93CDB7DEB782E80E94D6133E
:102320000E94C11387EE92E10E946D140E945F1417
:102330000E94E508CF91DF910895DF93CF9300D0FD
:102340000F92CDB7DEB71B821A8219821B8275C02D
:102350008B81282F30E0C901880F991F880F991FA2
:10236000880F991F820F931FFC01E85EFE4F80814A
:10237000882309F05FC08B81282F30E0C901880FC6
:10238000991F880F991F880F991F820F931FFC01B7
:10239000EA5EFE4F90818A81981798F08B81282FF2
:1023A00030E0C901880F991F880F991F880F991F66
:1023B000820F931FFC01EA5EFE4F80818A838B812E
:1023C00089838981282F30E0C901880F991F880FE0
:1023D000991F880F991F820F931FFC01E85EFE4F23
:1023E00081E080838981282F30E0C901880F991FFF
:1023F000880F991F880F991F820F931FFC01E05FC0
:10240000FE4F0190F081E02D09958981282F30E061
:10241000C901880F991F880F991F880F991F820F74
:10242000931FFC01E85EFE4F82E080831B828A815D
:1024300081508A838B818F5F8B838B81833008F4FB
:1024400087CF84CFDF93CF9300D000D000D0CDB71B
:10245000DEB79A8389837C836B834D832E8380913F
:102460000801282F30E0C901880F991F880F991F94
:10247000880F991F820F931FFC01E05FFE4F898137
:102480009A819183808380910801282F30E0C901CF
:10249000880F991F880F991F880F991F820F931F0C
:1024A000FC01EE5EFE4F8B819C8191838083809145
:1024B0000801282F30E0C901880F991F880F991F44
:1024C000880F991F820F931FFC01EC5EFE4F8B81DA
:1024D0009C819183808380910801282F30E0C9017D
:1024E000880F991F880F991F880F991F820F931FBC
:1024F000FC01EA5EFE4F8D81808380910801282FC8
:1025000030E0C901880F991F880F991F880F991F04
:10251000820F931FFC01E95EFE4F8E8180838091C4
:102520000801282F30E0C901880F991F880F991FD3
:10253000880F991F820F931FFC01E85EFE4F1082E7
:10254000809108018F5F8093080126960FB6F8945A
:10255000DEBF0FBECDBFCF91DF910895DF93CF9344
:1025600000D0CDB7DEB78A831982198228C089814D
:10257000282F30E0C901880F991F880F991F880FF5
:10258000991F820F931FFC01E95EFE4F90818A81A3
:10259000981791F48981282F30E0C901880F991F7D
:1025A000880F991F880F991F820F931FFC01E85E07
:1025B000FE4F83E0808306C089818F5F8983898194
:1025C0008330A8F20F900F90CF91DF910895DF93A1
:1025D000CF930F92CDB7DEB71982809107018F5F3D
:1025E000809307011982A2C08981282F30E0C90198
:1025F000880F991F880F991F880F991F820F931FAB
:10260000FC01E85EFE4F8081833009F48CC0898133
:10261000282F30E0C901880F991F880F991F880F54
:10262000991F820F931FFC01E85EFE4F808182306C
:1026300009F079C08981282F30E0C901880F991FDE
:10264000880F991F880F991F820F931FFC01EE5E60
:10265000FE4F80819181AC0141505040C901880FEB
:10266000991F880F991F880F991F820F931FFC01D4
:10267000EE5EFE4F518340838981282F30E0C901EF
:10268000880F991F880F991F880F991F820F931F1A
:10269000FC01EE5EFE4F80819181009799F5898162
:1026A000282F30E0C901880F991F880F991F880FC4
:1026B000991F820F931FFC01E85EFE4F10828981F3
:1026C000482F50E08981282F30E0C901880F991FD9
:1026D000880F991F880F991F820F931FFC01EC5ED2
:1026E000FE4F20813181CA01880F991F880F991FE1
:1026F000880F991F840F951FFC01EE5EFE4F3183FA
:10270000208311C08981282F30E0C901880F991FCB
:10271000880F991F880F991F820F931FFC01E85E95
:10272000FE4F82E0808389818F5F89838981833036
:1027300008F45ACF0F90CF91DF910895DF93CF9394
:10274000CDB7DEB7A4E5B0E0E4E5F0E080818068D5
:102750008C93A4E5B0E0E4E5F0E080818F7E8C937B
:10276000A4E5B0E0E4E5F0E080818F7D8C93A4E502
:10277000B0E0E4E5F0E080818F7B8C93CF91DF9136
:102780000895DF93CF93CDB7DEB7CF91DF91089552
:10279000DF93CF930F92CDB7DEB78983E2E5F0E008
:1027A000898180830F90CF91DF910895DF93CF933C
:1027B0000F92CDB7DEB78983ECE5F0E089818083A5
:1027C000A3E5B0E0E3E5F0E0808181608C93A3E5D0
:1027D000B0E0E3E5F0E0808182608C930F90CF91D0
:1027E000DF910895DF93CF93CDB7DEB728970FB66B
:1027F000F894DEBF0FBECDBF6D837E838F83988735
:10280000ECE5F0E089EF8083E2E5F0E010821982E8
:102810001A821B821C821BC0E8E5F0E08081882FB1
:1028200090E0817090700097B9F3A8E5B0E0E8E51A
:10283000F0E0808182608C9389819A81AB81BC8138
:102840000196A11DB11D89839A83AB83BC838D81C1
:102850009E81AF81B8859C01AD015695479537950E
:10286000279589819A81AB81BC8182179307A40740
:10287000B50790F228960FB6F894DEBF0FBECDBF15
:10288000CF91DF910895DF93CF93CDB7DEB7A3E566
:10289000B0E0E3E5F0E080818E7F8C93A3E5B0E0CB
:1028A000E3E5F0E080818D7F8C93A3E5B0E0E3E584
:1028B000F0E080818B7F8C93CF91DF910895DF933F
:1028C000CF93CDB7DEB7A9E5B0E0E9E5F0E08081D0
:1028D00082608C93CF91DF910895DF93CF9300D0E6
:1028E000CDB7DEB79A83898389819A8190932C0131
:1028F00080932B010F900F90CF91DF9108951F923D
:102900000F920FB60F9211242F933F934F935F9323
:102910006F937F938F939F93AF93BF93EF93FF93A7
:10292000DF93CF93CDB7DEB7E0912B01F0912C016F
:102930000995CF91DF91FF91EF91BF91AF919F9159
:102940008F917F916F915F914F913F912F910F9058
:102950000FBE0F901F901895DF93CF93CDB7DEB7C2
:102960002C970FB6F894DEBF0FBECDBF69877A876C
:102970008B879C8719821A821B821C8224C01D822D
:102980001E821F8218860BC08D819E81AF81B88503
:102990000196A11DB11D8D839E83AF83B8878D8164
:1029A0009E81AF81B885803F9105A105B10560F397
:1029B00089819A81AB81BC810196A11DB11D89835A
:1029C0009A83AB83BC8329813A814B815C81898561
:1029D0009A85AB85BC85281739074A075B0778F2CB
:1029E0002C960FB6F894DEBF0FBECDBFCF91DF910E
:1029F0000895DF93CF93CDB7DEB78EE061E00E94FC
:102A0000F0078EE060E00E948906CF91DF91089583
:102A1000DF93CF93CDB7DEB78EE00E947E07882389
:102A200029F48EE061E00E94890604C08EE060E037
:102A30000E948906CF91DF910895DF93CF9300D054
:102A4000CDB7DEB780910C01853008F0AEC0809123
:102A50000F01282F30E03A83298389819A810097DA
:102A600031F029813A8121303105C1F1B2C080E6CF
:102A700090E00E94A31081E060E00E945F118CE66C
:102A800090E00E94A31080910E018130E9F481E072
:102A900080930F010E947F1143E950E080910C0167
:102AA000882F90E09C01220F331F220F331FC90192
:102AB000880F991F880F991F820F931F840F951FEE
:102AC0000E94A31010920E0180910E01823009F035
:102AD00080C010920F0110920E017BC080910E01F8
:102AE000813079F580910C01882F90E0FC01E9504C
:102AF000FF4F8081813029F480910A018F5F80939C
:102B00000A0180910C018F5F80930C010E947F115C
:102B100043E950E080910C01882F90E09C01220F46
:102B2000331F220F331FC901880F991F880F991F68
:102B3000820F931F840F951F0E94A31010920E0105
:102B400048C080910E01823009F043C080910C0191
:102B5000882F90E0FC01E950FF4F8081882329F401
:102B600080910A018F5F80930A0180910C018F5F31
:102B700080930C010E947F1143E950E080910C0189
:102B8000882F90E09C01220F331F220F331FC901B1
:102B9000880F991F880F991F820F931F840F951F0D
:102BA0000E94A31010920E0114C080910C01853078
:102BB00081F40E947F118DE790E00E94A310809124
:102BC0000A01882F90E0A0E0B0E0BC01CD010E9496
:102BD000CC100F900F90CF91DF910895DF93CF939A
:102BE000CDB7DEB78BE091E00E94A9098230A1F455
:102BF00080910D018F5F80930D0180910B018935CC
:102C000021F481E080930E0107C080910B018E3486
:102C100019F482E080930E01CF91DF910895DF9344
:102C2000CF93CDB7DEB70E94370A0E9472090E9487
:102C3000F9140E94891188E095E168EE73E042E0A2
:102C400021E00E9422128DE195E162E370E041E013
:102C500022E00E9422128EEE95E164E170E043E0F2
:102C600020E00E9422120E949D11FFCF629FD0019E
:102C7000739FF001829FE00DF11D649FE00DF11D37
:102C8000929FF00D839FF00D749FF00D659FF00DE6
:102C90009927729FB00DE11DF91F639FB00DE11DD3
:102CA000F91FBD01CF0111240895A1E21A2EAA1B1C
:102CB000BB1BFD010DC0AA1FBB1FEE1FFF1FA217EC
:102CC000B307E407F50720F0A21BB30BE40BF50BE9
:102CD000661F771F881F991F1A9469F76095709572
:102CE000809590959B01AC01BD01CF0108952F9275
:102CF0003F924F925F926F927F928F929F92AF928C
:102D0000BF92CF92DF92EF92FF920F931F93CF93D8
:102D1000DF93CDB7DEB7CA1BDB0B0FB6F894DEBF6F
:102D20000FBECDBF09942A88398848885F846E8495
:102D30007D848C849B84AA84B984C884DF80EE80DF
:102D4000FD800C811B81AA81B981CE0FD11D0FB6E8
:102D5000F894DEBF0FBECDBFED010895F894FFCF0C
:102D60006C6574277320706C61793F004255543153
:102D70003D2059202F20425554323D4E00596F7549
:102D80007220526573756C743D20000000000000D5
:102D9000000000686F77206F6C6400000000000086
:102DA00000000000000000686F77206C6F6E670005
:102DB0000000000000000000000000686F77206D38
:102DC000756368000000000000000000000000774C
:102DD0006861742074696D650000000000000000E7
:102DE000000000646F20796F752077616E740000B9
:102DF000000000000000000100000001594E3934BD
:062E0000353631323300CB
:00000001FF
