:100000000C942A000C9447000C9447000C94470071
:100010000C9447000C9447000C9447000C94470044
:100020000C9447000C9447000C9447000C94470034
:100030000C9447000C9447000C9447000C94470024
:100040000C9447000C9447000C9447000C94470014
:100050000C94470011241FBECFE5D8E0DEBFCDBF12
:1000600010E0A0E6B0E0EAE9F9E002C005900D92E8
:10007000A436B107D9F710E0A4E6B0E001C01D92A4
:10008000A536B107E1F70E9454030C94CB040C94FD
:100090000000DF93CF9300D0CDB7DEB789836A83AA
:1000A0008A81882309F074C089818830A8F4ABE381
:1000B000B0E0EBE3F0E08081482F8981282F30E029
:1000C00081E090E0022E02C0880F991F0A94E2F7A7
:1000D000809584238C93CDC089818830D8F0898124
:1000E0008031C0F4A8E3B0E0E8E3F0E08081482F7D
:1000F0008981882F90E09C012850304081E090E079
:10010000022E02C0880F991F0A94E2F7809584237B
:100110008C93AFC089818031D8F089818831C0F457
:10012000A5E3B0E0E5E3F0E08081482F8981882FE6
:1001300090E09C012051304081E090E0022E02C00E
:10014000880F991F0A94E2F7809584238C9391C0BD
:100150008981883108F48DC08981803208F089C096
:10016000A2E3B0E0E2E3F0E08081482F8981882FAC
:1001700090E09C012851304081E090E0022E02C0C6
:10018000880F991F0A94E2F7809584238C9371C09D
:100190008A81813009F06DC089818830A0F4ABE399
:1001A000B0E0EBE3F0E08081482F8981282F30E038
:1001B00081E090E0022E02C0880F991F0A94E2F7B6
:1001C000842B8C9356C089818830D0F0898180310E
:1001D000B8F4A8E3B0E0E8E3F0E08081482F89813B
:1001E000882F90E09C012850304081E090E0022E62
:1001F00002C0880F991F0A94E2F7842B8C9339C0B0
:1002000089818031D0F089818831B8F4A5E3B0E0EC
:10021000E5E3F0E08081482F8981882F90E09C0100
:100220002051304081E090E0022E02C0880F991FDB
:100230000A94E2F7842B8C931CC089818831C8F022
:1002400089818032B0F4A2E3B0E0E2E3F0E08081A3
:10025000482F8981882F90E09C012851304081E00F
:1002600090E0022E02C0880F991F0A94E2F7842BB7
:100270008C930F900F90CF91DF910895DF93CF93E0
:1002800000D0CDB7DEB78A8319828A81883090F496
:10029000E9E3F0E08081482F8A81282F30E081E077
:1002A00090E0022E02C0880F991F0A94E2F784237F
:1002B000898350C08A818830C0F08A818031A8F457
:1002C000E6E3F0E08081482F8A81882F90E09C014E
:1002D0002850304081E090E0022E02C0880F991F24
:1002E0000A94E2F78423898335C08A818031C0F083
:1002F0008A818831A8F4E3E3F0E08081482F8A8185
:10030000882F90E09C012051304081E090E0022E47
:1003100002C0880F991F0A94E2F7842389831AC0C8
:100320008A818831B8F08A818032A0F4E0E3F0E07D
:100330008081482F8A81882F90E09C01285130408D
:1003400081E090E0022E02C0880F991F0A94E2F724
:100350008423898389810F900F90CF91DF91089535
:10036000DF93CF9300D0CDB7DEB789836A838A81CC
:10037000813009F070C089818830A0F4AAE3B0E030
:10038000EAE3F0E08081482F8981282F30E081E086
:1003900090E0022E02C0880F991F0A94E2F7842B86
:1003A0008C93CEC089818830D0F089818031B8F4B7
:1003B000A7E3B0E0E7E3F0E08081482F8981882F50
:1003C00090E09C012850304081E090E0022E02C075
:1003D000880F991F0A94E2F7842B8C93B1C089810E
:1003E0008031D0F089818831B8F4A4E3B0E0E4E34F
:1003F000F0E08081482F8981882F90E09C01205176
:10040000304081E090E0022E02C0880F991F0A94CC
:10041000E2F7842B8C9394C08981883108F490C0D2
:100420008981803208F08CC0A1E3B0E0E1E3F0E024
:100430008081482F8981882F90E09C01285130408D
:1004400081E090E0022E02C0880F991F0A94E2F723
:10045000842B8C9375C08A81882309F071C08981AF
:100460008830A8F4AAE3B0E0EAE3F0E08081482F06
:100470008981282F30E081E090E0022E02C0880FB1
:10048000991F0A94E2F7809584238C9359C089813F
:100490008830D8F089818031C0F4A7E3B0E0E7E389
:1004A000F0E08081482F8981882F90E09C012850BE
:1004B000304081E090E0022E02C0880F991F0A941C
:1004C000E2F7809584238C933BC089818031D8F0FA
:1004D00089818831C0F4A4E3B0E0E4E3F0E08081F6
:1004E000482F8981882F90E09C012051304081E085
:1004F00090E0022E02C0880F991F0A94E2F78095BF
:1005000084238C931DC089818831D0F08981803209
:10051000B8F4A1E3B0E0E1E3F0E08081482F898105
:10052000882F90E09C012851304081E090E0022E1D
:1005300002C0880F991F0A94E2F7809584238C9358
:100540000F900F90CF91DF910895DF93CF93CDB7A8
:10055000DEB7A3E5B0E0E3E5F0E0808183608C9353
:10056000E2E5F0E01082CF91DF910895DF93CF9321
:10057000CDB7DEB728970FB6F894DEBF0FBECDBF5C
:100580006D837E838F839887ECE5F0E089EF80832D
:10059000E2E5F0E0108219821A821B821C821BC0E5
:1005A000E8E5F0E08081882F90E0817090700097FE
:1005B000B9F3A8E5B0E0E8E5F0E0808182608C93D3
:1005C00089819A81AB81BC810196A11DB11D89836E
:1005D0009A83AB83BC838D819E81AF81B8859C015A
:1005E000AD01569547953795279589819A81AB81BD
:1005F000BC8182179307A407B50790F228960FB61F
:10060000F894DEBF0FBECDBFCF91DF910895DF9389
:10061000CF93CDB7DEB72C970FB6F894DEBF0FBEE1
:10062000CDBF69877A878B879C8719821A821B8244
:100630001C8224C01D821E821F8218860BC08D81E1
:100640009E81AF81B8850196A11DB11D8D839E83CA
:10065000AF83B8878D819E81AF81B885803F91053A
:10066000A105B10560F389819A81AB81BC810196B6
:10067000A11DB11D89839A83AB83BC8329813A81F3
:100680004B815C8189859A85AB85BC8528173907A4
:100690004A075B0778F22C960FB6F894DEBF0FBEC0
:1006A000CDBFCF91DF910895DF93CF93CDB7DEB764
:1006B0002C970FB6F894DEBF0FBECDBF1C821B82F5
:1006C0001A821982CE01059699878887E0E6F0E0C4
:1006D000FB87EA87F3E0FC87EA85FB8500808A8553
:1006E0009B8501969B878A87E885F98500828885A6
:1006F00099850196998788879C8591509C87EC8580
:10070000EE2351F78CE061E00E94B00182E160E0ED
:100710000E94B00185E161E00E94B00182E161E0E8
:100720000E94490085E160E00E94490084E160E0A8
:100730000E94B00181E00E9483040E949C040E94F8
:100740000E048823E1F11B8235C00E940E04882329
:1007500071F18981882359F51C8213C00E940E040F
:10076000882331F0809164008F5F809364001C8245
:100770006EE670E080E090E00E9407038C818F5F5E
:100780008C838C818A3050F38B81282F30E040910C
:100790006400CE010596FC01E20FF31F4083109226
:1007A000640068EE73E080E090E00E9407038B81B4
:1007B0008F5F8B838B81833040F281E089838981D5
:1007C000813011F51A821DC08A81282F30E0CE01B8
:1007D0000596FC01E20FF31F80810E94480468EE39
:1007E00073E080E090E00E94070389E00E944804E3
:1007F00068EE73E080E090E00E9407038A818F5FDB
:100800008A838A81833000F30E942B04882309F4B1
:1008100096CF1092640019821B8291CFDF93CF9301
:100820000F92CDB7DEB7198282E10E943E01882384
:1008300069F46EE170E080E090E00E94070382E1DD
:100840000E943E01882311F481E0898389810F9001
:10085000CF91DF910895DF93CF930F92CDB7DEB79D
:10086000198284E10E943E01882369F06EE170E004
:1008700080E090E00E94070384E10E943E0188230B
:1008800011F081E0898389810F90CF91DF910895E4
:10089000DF93CF930F92CDB7DEB789838981982FED
:1008A000917088E0692F0E9449008981882F90E02B
:1008B0008270907095958795982F89E0692F0E9496
:1008C00049008981882F90E0847090709595879574
:1008D00095958795982F8AE0692F0E944900898114
:1008E000882F90E08870907095958795959587955D
:1008F00095958795982F8BE0692F0E9449000F905E
:10090000CF91DF910895DF93CF930F92CDB7DEB7EC
:1009100089838981813029F48AE161E00E9449005C
:1009200007C08981823021F48BE161E00E94490097
:100930000F90CF91DF910895DF93CF93CDB7DEB7BE
:1009400088E061E00E94B00189E061E00E94B001AE
:100950008AE061E00E94B0018BE061E00E94B0019A
:100960008AE161E00E94B0018BE161E00E94B00188
:1009700088E060E00E94490088E060E00E94490051
:1009800088E060E00E94490088E060E00E94490041
:0A099000CF91DF910895F894FFCF96
:04099A000000000059
:00000001FF
