:100000000C942A000C943C000C943C000C943C0092
:100010000C943C000C943C000C943C000C943C0070
:100020000C943C000C943C000C943C000C943C0060
:100030000C943C000C943C000C943C000C943C0050
:100040000C943C000C943C000C943C000C943C0040
:100050000C943C0011241FBECFE5D8E0DEBFCDBF1D
:1000600010E0A0E6B0E001C01D92A136B107E1F7B3
:100070000E9449030C94DD030C940000DF93CF939E
:1000800000D0CDB7DEB789836A838A81882309F0DF
:1000900074C089818830A8F4ABE3B0E0EBE3F0E012
:1000A0008081482F8981282F30E081E090E0022E66
:1000B00002C0880F991F0A94E2F7809584238C93DD
:1000C000CDC089818830D8F089818031C0F4A8E31F
:1000D000B0E0E8E3F0E08081482F8981882F90E04C
:1000E0009C012850304081E090E0022E02C0880F31
:1000F000991F0A94E2F7809584238C93AFC089817D
:100100008031D8F089818831C0F4A5E3B0E0E5E31F
:10011000F0E08081482F8981882F90E09C01205158
:10012000304081E090E0022E02C0880F991F0A94AF
:10013000E2F7809584238C9391C08981883108F4FB
:100140008DC08981803208F089C0A2E3B0E0E2E38B
:10015000F0E08081482F8981882F90E09C01285110
:10016000304081E090E0022E02C0880F991F0A946F
:10017000E2F7809584238C9371C08A81813009F0E5
:100180006DC089818830A0F4ABE3B0E0EBE3F0E030
:100190008081482F8981282F30E081E090E0022E75
:1001A00002C0880F991F0A94E2F7842B8C9356C0E3
:1001B00089818830D0F089818031B8F4A8E3B0E03B
:1001C000E8E3F0E08081482F8981882F90E09C014E
:1001D0002850304081E090E0022E02C0880F991F25
:1001E0000A94E2F7842B8C9339C089818031D0F056
:1001F00089818831B8F4A5E3B0E0E5E3F0E08081DF
:10020000482F8981882F90E09C012051304081E067
:1002100090E0022E02C0880F991F0A94E2F7842B07
:100220008C931CC089818831C8F089818032B0F4F8
:10023000A2E3B0E0E2E3F0E08081482F8981882FDB
:1002400090E09C012851304081E090E0022E02C0F5
:10025000880F991F0A94E2F7842B8C930F900F90CC
:10026000CF91DF910895DF93CF9300D0CDB7DEB764
:100270008A8319828A81883090F4E9E3F0E08081F2
:10028000482F8A81282F30E081E090E0022E02C0C2
:10029000880F991F0A94E2F78423898350C08A81CA
:1002A0008830C0F08A818031A8F4E6E3F0E08081F4
:1002B000482F8A81882F90E09C012850304081E0AF
:1002C00090E0022E02C0880F991F0A94E2F784235F
:1002D000898335C08A818031C0F08A818831A8F451
:1002E000E3E3F0E08081482F8A81882F90E09C0131
:1002F0002051304081E090E0022E02C0880F991F0B
:100300000A94E2F7842389831AC08A818831B8F07D
:100310008A818032A0F4E0E3F0E08081482F8A8176
:10032000882F90E09C012851304081E090E0022E1F
:1003300002C0880F991F0A94E2F784238983898178
:100340000F900F90CF91DF910895DF93CF9300D05E
:10035000CDB7DEB789836A838A81813009F070C0A6
:1003600089818830A0F4AAE3B0E0EAE3F0E080817C
:10037000482F8981282F30E081E090E0022E02C0D2
:10038000880F991F0A94E2F7842B8C93CEC0898141
:100390008830D0F089818031B8F4A7E3B0E0E7E39A
:1003A000F0E08081482F8981882F90E09C012850BF
:1003B000304081E090E0022E02C0880F991F0A941D
:1003C000E2F7842B8C93B1C089818031D0F0898190
:1003D0008831B8F4A4E3B0E0E4E3F0E08081482F92
:1003E0008981882F90E09C012051304081E090E08D
:1003F000022E02C0880F991F0A94E2F7842B8C9377
:1004000094C08981883108F490C08981803208F0D5
:100410008CC0A1E3B0E0E1E3F0E08081482F898166
:10042000882F90E09C012851304081E090E0022E1E
:1004300002C0880F991F0A94E2F7842B8C9375C031
:100440008A81882309F071C089818830A8F4AAE3E1
:10045000B0E0EAE3F0E08081482F8981282F30E086
:1004600081E090E0022E02C0880F991F0A94E2F703
:10047000809584238C9359C089818830D8F08981F4
:100480008031C0F4A7E3B0E0E7E3F0E08081482FDB
:100490008981882F90E09C012850304081E090E0D5
:1004A000022E02C0880F991F0A94E2F780958423D8
:1004B0008C933BC089818031D8F089818831C0F428
:1004C000A4E3B0E0E4E3F0E08081482F8981882F45
:1004D00090E09C012051304081E090E0022E02C06B
:1004E000880F991F0A94E2F7809584238C931DC08E
:1004F00089818831D0F089818032B8F4A1E3B0E0FD
:10050000E1E3F0E08081482F8981882F90E09C0111
:100510002851304081E090E0022E02C0880F991FE0
:100520000A94E2F7809584238C930F900F90CF91DB
:10053000DF910895DF93CF93CDB7DEB7A3E5B0E0A9
:10054000E3E5F0E0808183608C93E2E5F0E01082E7
:10055000CF91DF910895DF93CF93CDB7DEB7289782
:100560000FB6F894DEBF0FBECDBF6D837E838F8341
:100570009887ECE5F0E089EF8083E2E5F0E0108217
:1005800019821A821B821C821BC0E8E5F0E0808180
:10059000882F90E0817090700097B9F3A8E5B0E0E3
:1005A000E8E5F0E0808182608C9389819A81AB815B
:1005B000BC810196A11DB11D89839A83AB83BC8345
:1005C0008D819E81AF81B8859C01AD01569547957F
:1005D0003795279589819A81AB81BC8182179307D2
:1005E000A407B50790F228960FB6F894DEBF0FBEA9
:1005F000CDBFCF91DF910895DF93CF93CDB7DEB715
:100600002C970FB6F894DEBF0FBECDBF69877A87EF
:100610008B879C8719821A821B821C8224C01D82B0
:100620001E821F8218860BC08D819E81AF81B88586
:100630000196A11DB11D8D839E83AF83B8878D81E7
:100640009E81AF81B885803F9105A105B10560F31A
:1006500089819A81AB81BC810196A11DB11D8983DD
:100660009A83AB83BC8329813A814B815C818985E4
:100670009A85AB85BC85281739074A075B0778F24E
:100680002C960FB6F894DEBF0FBECDBFCF91DF9191
:100690000895DF93CF93CDB7DEB70E94AE0381E01C
:1006A0000E94950387E00E945A0380E090E0CF917A
:1006B000DF910895DF93CF930F92CDB7DEB7898393
:1006C0008981982F917088E0692F0E943E0089816E
:1006D000882F90E08270907095958795982F89E08B
:1006E000692F0E943E008981882F90E0847090706D
:1006F0009595879595958795982F8AE0692F0E9403
:100700003E008981882F90E088709070959587953C
:100710009595879595958795982F8BE0692F0E94E1
:100720003E000F90CF91DF910895DF93CF930F920A
:10073000CDB7DEB789838981813029F48AE161E010
:100740000E943E0007C08981823021F48BE161E084
:100750000E943E000F90CF91DF910895DF93CF93D9
:10076000CDB7DEB788E061E00E94A50189E061E0D5
:100770000E94A5018AE061E00E94A5018BE061E092
:100780000E94A5018AE161E00E94A5018BE161E080
:100790000E94A50188E060E00E943E0088E060E0E1
:1007A0000E943E0088E060E00E943E0088E060E039
:0E07B0000E943E00CF91DF910895F894FFCF94
:00000001FF
