:100000000C942A000C943C000C943C000C943C0092
:100010000C943C000C943C000C943C000C943C0070
:100020000C943C000C943C000C943C000C943C0060
:100030000C943C000C943C000C943C000C943C0050
:100040000C943C000C943C000C943C000C943C0040
:100050000C943C0011241FBECFE5D8E0DEBFCDBF1D
:1000600013E0A0E6B0E001C01D92AC38B107E1F7A3
:100070000E94C4050C94B2060C940000DF93CF9349
:100080000F92CDB7DEB719828AE00E946D018823F6
:1000900069F46EE170E080E090E00E9477058AE00C
:1000A0000E946D01882311F481E0898389810F907A
:1000B000CF91DF910895DF93CF930F92CDB7DEB745
:1000C000198284E10E946D01882369F06EE170E07D
:1000D00080E090E00E94770584E10E946D01882312
:1000E00011F081E0898389810F90CF91DF9108958C
:1000F000DF93CF9300D0CDB7DEB789836A838A813F
:10010000882309F074C089818830A8F4ABE3B0E09B
:10011000EBE3F0E08081482F8981282F30E081E0F7
:1001200090E0022E02C0880F991F0A94E2F7809592
:1001300084238C93CDC089818830D8F08981803127
:10014000C0F4A8E3B0E0E8E3F0E08081482F8981C3
:10015000882F90E09C012850304081E090E0022EF2
:1001600002C0880F991F0A94E2F7809584238C932C
:10017000AFC089818031D8F089818831C0F4A5E38E
:10018000B0E0E5E3F0E08081482F8981882F90E09E
:100190009C012051304081E090E0022E02C0880F87
:1001A000991F0A94E2F7809584238C9391C08981EA
:1001B000883108F48DC08981803208F089C0A2E3BB
:1001C000B0E0E2E3F0E08081482F8981882F90E061
:1001D0009C012851304081E090E0022E02C0880F3F
:1001E000991F0A94E2F7809584238C9371C08A81C9
:1001F000813009F06DC089818830A0F4ABE3B0E0B4
:10020000EBE3F0E08081482F8981282F30E081E006
:1002100090E0022E02C0880F991F0A94E2F7842B07
:100220008C9356C089818830D0F089818031B8F4B0
:10023000A8E3B0E0E8E3F0E08081482F8981882FCF
:1002400090E09C012850304081E090E0022E02C0F6
:10025000880F991F0A94E2F7842B8C9339C0898107
:100260008031D0F089818831B8F4A5E3B0E0E5E3CE
:10027000F0E08081482F8981882F90E09C012051F7
:10028000304081E090E0022E02C0880F991F0A944E
:10029000E2F7842B8C931CC089818831C8F0898156
:1002A0008032B0F4A2E3B0E0E2E3F0E08081482FD6
:1002B0008981882F90E09C012851304081E090E0B6
:1002C000022E02C0880F991F0A94E2F7842B8C93A8
:1002D0000F900F90CF91DF910895DF93CF9300D0CF
:1002E000CDB7DEB78A8319828A81883090F4E9E33A
:1002F000F0E08081482F8A81282F30E081E090E073
:10030000022E02C0880F991F0A94E2F78423898382
:1003100050C08A818830C0F08A818031A8F4E6E339
:10032000F0E08081482F8A81882F90E09C0128503E
:10033000304081E090E0022E02C0880F991F0A949D
:10034000E2F78423898335C08A818031C0F08A81B5
:100350008831A8F4E3E3F0E08081482F8A81882F78
:1003600090E09C012051304081E090E0022E02C0DC
:10037000880F991F0A94E2F7842389831AC08A811F
:100380008831B8F08A818032A0F4E0E3F0E0808127
:10039000482F8A81882F90E09C012851304081E0CD
:1003A00090E0022E02C0880F991F0A94E2F784237E
:1003B000898389810F900F90CF91DF910895DF930A
:1003C000CF9300D0CDB7DEB789836A838A8181302D
:1003D00009F070C089818830A0F4AAE3B0E0EAE3B4
:1003E000F0E08081482F8981282F30E081E090E083
:1003F000022E02C0880F991F0A94E2F7842B8C9377
:10040000CEC089818830D0F089818031B8F4A7E3EB
:10041000B0E0E7E3F0E08081482F8981882F90E009
:100420009C012850304081E090E0022E02C0880FED
:10043000991F0A94E2F7842B8C93B1C08981803193
:10044000D0F089818831B8F4A4E3B0E0E4E3F0E0CF
:100450008081482F8981882F90E09C012051304075
:1004600081E090E0022E02C0880F991F0A94E2F703
:10047000842B8C9394C08981883108F490C0898141
:10048000803208F08CC0A1E3B0E0E1E3F0E08081CD
:10049000482F8981882F90E09C012851304081E0CD
:1004A00090E0022E02C0880F991F0A94E2F7842B75
:1004B0008C9375C08A81882309F071C08981883046
:1004C000A8F4AAE3B0E0EAE3F0E08081482F898154
:1004D000282F30E081E090E0022E02C0880F991FA3
:1004E0000A94E2F7809584238C9359C089818830DF
:1004F000D8F089818031C0F4A7E3B0E0E7E3F0E011
:100500008081482F8981882F90E09C0128503040BD
:1005100081E090E0022E02C0880F991F0A94E2F752
:10052000809584238C933BC089818031D8F0898168
:100530008831C0F4A4E3B0E0E4E3F0E08081482F28
:100540008981882F90E09C012051304081E090E02B
:10055000022E02C0880F991F0A94E2F78095842327
:100560008C931DC089818831D0F089818032B8F4A4
:10057000A1E3B0E0E1E3F0E08081482F8981882F9A
:1005800090E09C012851304081E090E0022E02C0B2
:10059000880F991F0A94E2F7809584238C930F901B
:1005A0000F90CF91DF910895DF93CF93CDB7DEB752
:1005B000AFE5B0E0EFE5F0E0808180688C93CF910B
:1005C000DF910895DF93CF93CDB7DEB7A9E5B0E013
:1005D000E9E5F0E0808184608C93CF91DF9108950C
:1005E000DF93CF93CDB7DEB7A9E5B0E0E9E5F0E062
:1005F000808181608C93CF91DF910895DF93CF93B9
:10060000CDB7DEB7A9E5B0E0E9E5F0E08081806232
:100610008C93CF91DF910895DF93CF93CDB7DEB761
:10062000ABE5B0E0EBE5F0E0808180628C93CF91A8
:10063000DF910895DF93CF9300D00F92CDB7DEB74F
:1006400089838981282F30E03B832A838A819B819B
:10065000009731F02A813B812130310549F00FC0EC
:10066000A4E5B0E0E4E5F0E080818F7B8C9307C0E7
:10067000A4E5B0E0E4E5F0E0808180648C930F9025
:100680000F900F90CF91DF910895DF93CF93CDB767
:10069000DEB7AFE5B0E0EFE5F0E080818F778C93D7
:1006A000CF91DF910895DF93CF93CDB7DEB7A9E562
:1006B000B0E0E9E5F0E080818E7F8C93CF91DF910F
:1006C0000895DF93CF9300D0CDB7DEB789836A83D7
:1006D0008981882F90E08130910519F482E80E9489
:1006E000EE048A81882F90E08130910541F486EAFA
:1006F00094E00E94C0040E9469050E94D4020F90F9
:100700000F90CF91DF9108950F93DF93CF93CDB7E3
:10071000DEB728970FB6F894DEBF0FBECDBF9A8321
:1007200089834B835C836D837E832F8308878885D1
:10073000882F90E0880F991F880F991F880F991FA5
:10074000FC01E459FF4F89819A81918380838885D8
:10075000882F90E0880F991F880F991F0196880FA6
:10076000991FFC01E459FF4F8B819C81AD81BE81B3
:1007700080839183A283B3838885882F90E0880F3C
:10078000991F880F991F880F991FFC01EE58FF4F82
:100790008F818083809168008F5F809368002896A6
:1007A0000FB6F894DEBF0FBECDBFCF91DF910F9192
:1007B0000895DF93CF930F92CDB7DEB789838981F8
:1007C000882F90E0880F991F880F991F880F991F15
:1007D000FC01E459FF4F118210820F90CF91DF91FD
:1007E0000895EF92FF920F931F93DF93CF930F9291
:1007F000CDB7DEB719822091600030916100409141
:100800006200509163008091640090916500A09116
:100810006600B091670082179307A407B50708F038
:1008200082C019826AC0E0906000F090610000917F
:100830006200109163008981882F90E0880F991FD2
:10084000880F991F0196880F991FFC01E459FF4FEB
:100850002081318142815381C801B7010E949006F5
:10086000DC01CB010097A105B10509F043C08981E6
:10087000882F90E0880F991F880F991F880F991F64
:10088000FC01E459FF4F80819181009799F18981A2
:10089000882F90E0880F991F880F991F880F991F44
:1008A000FC01EE58FF4F80818823A1F48981882FB5
:1008B00090E0880F991F880F991F880F991FFC01DE
:1008C000E459FF4F0190F081E02D099589810E9444
:1008D000D90310C08981882F90E0880F991F880F55
:1008E000991F880F991FFC01E459FF4F0190F08177
:1008F000E02D099589818F5F8983909168008981B6
:10090000891708F490CF8091600090916100A091C8
:100910006200B09163008093640090936500A0939F
:100920006600B09367000F90CF91DF911F910F91F8
:10093000FF90EF900895DF93CF93CDB7DEB70E947D
:1009400045030E944D05CF91DF910895DF93CF932A
:10095000CDB7DEB78091600090916100A0916200F8
:10096000B09163000196A11DB11D8093600090932A
:100970006100A0936200B0936300CF91DF9108956E
:10098000DF93CF9300D0CDB7DEB79A838983A3E5F9
:10099000B0E0E3E5F0E0808181608C93A3E5B0E016
:1009A000E3E5F0E0808182608C9389819A81909365
:1009B0006B0080936A000F900F90CF91DF910895A4
:1009C000DF93CF930F92CDB7DEB78983E2E5F0E0F6
:1009D000898180830F90CF91DF910895DF93CF932A
:1009E0000F92CDB7DEB78983ECE5F0E08981808393
:1009F0000F90CF91DF910895DF93CF93CDB7DEB7FE
:100A000028970FB6F894DEBF0FBECDBF6D837E83EF
:100A10008F839887ECE5F0E089EF8083E2E5F0E0F2
:100A2000108219821A821B821C821BC0E8E5F0E04A
:100A30008081882F90E0817090700097B9F3A8E5CD
:100A4000B0E0E8E5F0E0808182608C9389819A8152
:100A5000AB81BC810196A11DB11D89839A83AB83B3
:100A6000BC838D819E81AF81B8859C01AD01569577
:100A700047953795279589819A81AB81BC818217EB
:100A80009307A407B50790F228960FB6F894DEBF37
:100A90000FBECDBFCF91DF910895DF93CF93CDB738
:100AA000DEB7A3E5B0E0E3E5F0E080818E7F8C93D4
:100AB000A3E5B0E0E3E5F0E080818D7F8C93A3E5D2
:100AC000B0E0E3E5F0E080818B7F8C93CF91DF9104
:100AD0000895DF93CF93CDB7DEB7A9E5B0E0E9E5A0
:100AE000F0E0808182608C93CF91DF910895DF9355
:100AF000CF93CDB7DEB72C970FB6F894DEBF0FBEFD
:100B0000CDBF69877A878B879C8719821A821B825F
:100B10001C8224C01D821E821F8218860BC08D81FC
:100B20009E81AF81B8850196A11DB11D8D839E83E5
:100B3000AF83B8878D819E81AF81B885803F910555
:100B4000A105B10560F389819A81AB81BC810196D1
:100B5000A11DB11D89839A83AB83BC8329813A810E
:100B60004B815C8189859A85AB85BC8528173907BF
:100B70004A075B0778F22C960FB6F894DEBF0FBEDB
:100B8000CDBFCF91DF9108950F93DF93CF93CDB772
:100B9000DEB70E9415060E9439060E945D060E947B
:100BA000810680E096E048EE53E060E070E021E0EE
:100BB00000E00E94840384E296E040ED57E060E0AC
:100BC00070E021E001E00E94840388E496E048EBB5
:100BD0005BE060E070E021E002E00E9484038CE6CC
:100BE00096E040EA5FE060E070E021E003E00E9410
:100BF000840381E061E00E9461030E94F103FDCF64
:100C0000DF93CF93CDB7DEB78CE00E946D018823D0
:100C100029F48CE061E00E94780004C08CE060E080
:100C20000E947800CF91DF910895DF93CF93CDB7E5
:100C3000DEB78CE061E00E94DF018CE060E00E94A2
:100C40007800CF91DF910895DF93CF93CDB7DEB7D2
:100C50008DE00E946D01882329F48DE061E00E94FF
:100C6000780004C08DE060E00E947800CF91DF91B1
:100C70000895DF93CF93CDB7DEB78DE061E00E949A
:100C8000DF018DE060E00E947800CF91DF91089550
:100C9000DF93CF93CDB7DEB78EE00E946D0188233E
:100CA00029F48EE061E00E94780004C08EE060E0EC
:100CB0000E947800CF91DF910895DF93CF93CDB755
:100CC000DEB78EE061E00E94DF018EE060E00E940E
:100CD0007800CF91DF910895DF93CF93CDB7DEB742
:100CE0008FE00E946D01882329F48FE061E00E946B
:100CF000780004C08FE060E00E947800CF91DF911F
:100D00000895DF93CF93CDB7DEB78FE061E00E9407
:100D1000DF018FE060E00E947800CF91DF910895BD
:100D2000A1E21A2EAA1BBB1BFD010DC0AA1FBB1FEF
:100D3000EE1FFF1FA217B307E407F50720F0A21B61
:100D4000B30BE40BF50B661F771F881F991F1A94CE
:100D500069F760957095809590959B01AC01BD01F8
:080D6000CF010895F894FFCFC4
:00000001FF
